{
  "contractName": "Charity",
  "abi": [
    {
      "inputs": [],
      "stateMutability": "nonpayable",
      "type": "constructor"
    },
    {
      "anonymous": false,
      "inputs": [
        {
          "indexed": false,
          "internalType": "uint256",
          "name": "caseId",
          "type": "uint256"
        }
      ],
      "name": "CaseCompleted",
      "type": "event"
    },
    {
      "anonymous": false,
      "inputs": [
        {
          "indexed": false,
          "internalType": "uint256",
          "name": "caseId",
          "type": "uint256"
        },
        {
          "indexed": false,
          "internalType": "address",
          "name": "createdBy",
          "type": "address"
        },
        {
          "indexed": false,
          "internalType": "uint256",
          "name": "timestamp",
          "type": "uint256"
        }
      ],
      "name": "CaseCreated",
      "type": "event"
    },
    {
      "anonymous": false,
      "inputs": [
        {
          "indexed": false,
          "internalType": "uint256",
          "name": "caseId",
          "type": "uint256"
        },
        {
          "indexed": false,
          "internalType": "address",
          "name": "donor",
          "type": "address"
        },
        {
          "indexed": false,
          "internalType": "uint256",
          "name": "amount",
          "type": "uint256"
        },
        {
          "indexed": false,
          "internalType": "uint256",
          "name": "timestamp",
          "type": "uint256"
        }
      ],
      "name": "Donate",
      "type": "event"
    },
    {
      "inputs": [
        {
          "internalType": "uint256",
          "name": "",
          "type": "uint256"
        }
      ],
      "name": "cases",
      "outputs": [
        {
          "internalType": "uint256",
          "name": "id",
          "type": "uint256"
        },
        {
          "internalType": "string",
          "name": "title",
          "type": "string"
        },
        {
          "internalType": "string",
          "name": "description",
          "type": "string"
        },
        {
          "internalType": "uint256",
          "name": "targetAmount",
          "type": "uint256"
        },
        {
          "internalType": "enum Charity.CaseStatus",
          "name": "status",
          "type": "uint8"
        },
        {
          "internalType": "address",
          "name": "beneficiary",
          "type": "address"
        }
      ],
      "stateMutability": "view",
      "type": "function",
      "constant": true
    },
    {
      "inputs": [
        {
          "internalType": "uint256",
          "name": "",
          "type": "uint256"
        }
      ],
      "name": "currentAmount",
      "outputs": [
        {
          "internalType": "uint256",
          "name": "",
          "type": "uint256"
        }
      ],
      "stateMutability": "view",
      "type": "function",
      "constant": true
    },
    {
      "inputs": [],
      "name": "trustee",
      "outputs": [
        {
          "internalType": "address",
          "name": "",
          "type": "address"
        }
      ],
      "stateMutability": "view",
      "type": "function",
      "constant": true
    },
    {
      "inputs": [
        {
          "internalType": "string",
          "name": "_title",
          "type": "string"
        },
        {
          "internalType": "string",
          "name": "_description",
          "type": "string"
        },
        {
          "internalType": "uint256",
          "name": "_targetAmount",
          "type": "uint256"
        }
      ],
      "name": "createCaseByNeedy",
      "outputs": [],
      "stateMutability": "nonpayable",
      "type": "function"
    },
    {
      "inputs": [
        {
          "internalType": "uint256",
          "name": "_caseId",
          "type": "uint256"
        }
      ],
      "name": "donate",
      "outputs": [],
      "stateMutability": "payable",
      "type": "function",
      "payable": true
    },
    {
      "inputs": [],
      "name": "listActiveCases",
      "outputs": [
        {
          "components": [
            {
              "internalType": "uint256",
              "name": "id",
              "type": "uint256"
            },
            {
              "internalType": "string",
              "name": "title",
              "type": "string"
            },
            {
              "internalType": "string",
              "name": "description",
              "type": "string"
            },
            {
              "internalType": "uint256",
              "name": "targetAmount",
              "type": "uint256"
            },
            {
              "internalType": "enum Charity.CaseStatus",
              "name": "status",
              "type": "uint8"
            },
            {
              "internalType": "address",
              "name": "beneficiary",
              "type": "address"
            }
          ],
          "internalType": "struct Charity.DonationCase[]",
          "name": "",
          "type": "tuple[]"
        }
      ],
      "stateMutability": "view",
      "type": "function",
      "constant": true
    }
  ],
  "bytecode": "0x608060405234801561001057600080fd5b50336000806101000a81548173ffffffffffffffffffffffffffffffffffffffff021916908373ffffffffffffffffffffffffffffffffffffffff160217905550611722806100606000396000f3fe6080604052600436106100555760003560e01c8063829d44441461005a578063b13c70fc14610083578063e73f3f6e146100ae578063f09790dd146100eb578063f14faf6f1461012d578063fdf97cb214610149575b600080fd5b34801561006657600080fd5b50610081600480360381019061007c9190610e3b565b610174565b005b34801561008f57600080fd5b5061009861034c565b6040516100a59190611167565b60405180910390f35b3480156100ba57600080fd5b506100d560048036038101906100d09190611189565b6106b4565b6040516100e291906111c5565b60405180910390f35b3480156100f757600080fd5b50610112600480360381019061010d9190611189565b6106cc565b60405161012496959493929190611248565b60405180910390f35b61014760048036038101906101429190611189565b610845565b005b34801561015557600080fd5b5061015e610b86565b60405161016b91906112b7565b60405180910390f35b600081116101b7576040517f08c379a00000000000000000000000000000000000000000000000000000000081526004016101ae90611344565b60405180910390fd5b60006040518060c001604052806001548152602001858152602001848152602001838152602001600060018111156101f2576101f1610f89565b5b81526020013373ffffffffffffffffffffffffffffffffffffffff1681525090508060026000600154815260200190815260200160002060008201518160000155602082015181600101908051906020019061024f929190610baa565b50604082015181600201908051906020019061026c929190610baa565b506060820151816003015560808201518160040160006101000a81548160ff021916908360018111156102a2576102a1610f89565b5b021790555060a08201518160040160016101000a81548173ffffffffffffffffffffffffffffffffffffffff021916908373ffffffffffffffffffffffffffffffffffffffff1602179055509050507fd104dde728c24c98387d74ddef6bdc5eea0e094fc17fdfa4a76da8e49323711c600154334260405161032693929190611364565b60405180910390a160016000815480929190610341906113ca565b919050555050505050565b60606000805b6001548110156103cd57600060018111156103705761036f610f89565b5b6002600083815260200190815260200160002060040160009054906101000a900460ff1660018111156103a6576103a5610f89565b5b036103ba5781806103b6906113ca565b9250505b80806103c5906113ca565b915050610352565b5060008167ffffffffffffffff8111156103ea576103e9610cda565b5b60405190808252806020026020018201604052801561042357816020015b610410610c30565b8152602001906001900390816104085790505b5090506000805b6001548110156106aa576000600181111561044857610447610f89565b5b6002600083815260200190815260200160002060040160009054906101000a900460ff16600181111561047e5761047d610f89565b5b0361069757600260008281526020019081526020016000206040518060c0016040529081600082015481526020016001820180546104bb90611441565b80601f01602080910402602001604051908101604052809291908181526020018280546104e790611441565b80156105345780601f1061050957610100808354040283529160200191610534565b820191906000526020600020905b81548152906001019060200180831161051757829003601f168201915b5050505050815260200160028201805461054d90611441565b80601f016020809104026020016040519081016040528092919081815260200182805461057990611441565b80156105c65780601f1061059b576101008083540402835291602001916105c6565b820191906000526020600020905b8154815290600101906020018083116105a957829003601f168201915b50505050508152602001600382015481526020016004820160009054906101000a900460ff1660018111156105fe576105fd610f89565b5b60018111156106105761060f610f89565b5b81526020016004820160019054906101000a900473ffffffffffffffffffffffffffffffffffffffff1673ffffffffffffffffffffffffffffffffffffffff1673ffffffffffffffffffffffffffffffffffffffff168152505083838151811061067d5761067c611472565b5b60200260200101819052508180610693906113ca565b9250505b80806106a2906113ca565b91505061042a565b5081935050505090565b60036020528060005260406000206000915090505481565b60026020528060005260406000206000915090508060000154908060010180546106f590611441565b80601f016020809104026020016040519081016040528092919081815260200182805461072190611441565b801561076e5780601f106107435761010080835404028352916020019161076e565b820191906000526020600020905b81548152906001019060200180831161075157829003601f168201915b50505050509080600201805461078390611441565b80601f01602080910402602001604051908101604052809291908181526020018280546107af90611441565b80156107fc5780601f106107d1576101008083540402835291602001916107fc565b820191906000526020600020905b8154815290600101906020018083116107df57829003601f168201915b5050505050908060030154908060040160009054906101000a900460ff16908060040160019054906101000a900473ffffffffffffffffffffffffffffffffffffffff16905086565b8060026000838152602001908152602001600020600001541461089d576040517f08c379a0000000000000000000000000000000000000000000000000000000008152600401610894906114ed565b60405180910390fd5b600060018111156108b1576108b0610f89565b5b6002600083815260200190815260200160002060040160009054906101000a900460ff1660018111156108e7576108e6610f89565b5b14610927576040517f08c379a000000000000000000000000000000000000000000000000000000000815260040161091e90611559565b60405180910390fd5b60008054906101000a900473ffffffffffffffffffffffffffffffffffffffff1673ffffffffffffffffffffffffffffffffffffffff163373ffffffffffffffffffffffffffffffffffffffff16036109b5576040517f08c379a00000000000000000000000000000000000000000000000000000000081526004016109ac906115c5565b60405180910390fd5b600034116109f8576040517f08c379a00000000000000000000000000000000000000000000000000000000081526004016109ef90611631565b60405180910390fd5b34600360008381526020019081526020016000206000828254610a1b9190611651565b925050819055506002600082815260200190815260200160002060040160019054906101000a900473ffffffffffffffffffffffffffffffffffffffff1673ffffffffffffffffffffffffffffffffffffffff166108fc349081150290604051600060405180830381858888f19350505050158015610a9e573d6000803e3d6000fd5b506002600082815260200190815260200160002060030154600360008381526020019081526020016000205410610b465760016002600083815260200190815260200160002060040160006101000a81548160ff02191690836001811115610b0957610b08610f89565b5b02179055507fc4942a26c7fc82969759ab441f3d3795870e601d88515c476c5ba2648715b81081604051610b3d91906111c5565b60405180910390a15b7f5b578d01c6d050393499c6be922240a8c6b29718e1312285d344f23a5b1ceba381333442604051610b7b94939291906116a7565b60405180910390a150565b60008054906101000a900473ffffffffffffffffffffffffffffffffffffffff1681565b828054610bb690611441565b90600052602060002090601f016020900481019282610bd85760008555610c1f565b82601f10610bf157805160ff1916838001178555610c1f565b82800160010185558215610c1f579182015b82811115610c1e578251825591602001919060010190610c03565b5b509050610c2c9190610c8e565b5090565b6040518060c001604052806000815260200160608152602001606081526020016000815260200160006001811115610c6b57610c6a610f89565b5b8152602001600073ffffffffffffffffffffffffffffffffffffffff1681525090565b5b80821115610ca7576000816000905550600101610c8f565b5090565b6000604051905090565b600080fd5b600080fd5b600080fd5b600080fd5b6000601f19601f8301169050919050565b7f4e487b7100000000000000000000000000000000000000000000000000000000600052604160045260246000fd5b610d1282610cc9565b810181811067ffffffffffffffff82111715610d3157610d30610cda565b5b80604052505050565b6000610d44610cab565b9050610d508282610d09565b919050565b600067ffffffffffffffff821115610d7057610d6f610cda565b5b610d7982610cc9565b9050602081019050919050565b82818337600083830152505050565b6000610da8610da384610d55565b610d3a565b905082815260208101848484011115610dc457610dc3610cc4565b5b610dcf848285610d86565b509392505050565b600082601f830112610dec57610deb610cbf565b5b8135610dfc848260208601610d95565b91505092915050565b6000819050919050565b610e1881610e05565b8114610e2357600080fd5b50565b600081359050610e3581610e0f565b92915050565b600080600060608486031215610e5457610e53610cb5565b5b600084013567ffffffffffffffff811115610e7257610e71610cba565b5b610e7e86828701610dd7565b935050602084013567ffffffffffffffff811115610e9f57610e9e610cba565b5b610eab86828701610dd7565b9250506040610ebc86828701610e26565b9150509250925092565b600081519050919050565b600082825260208201905092915050565b6000819050602082019050919050565b610efb81610e05565b82525050565b600081519050919050565b600082825260208201905092915050565b60005b83811015610f3b578082015181840152602081019050610f20565b83811115610f4a576000848401525b50505050565b6000610f5b82610f01565b610f658185610f0c565b9350610f75818560208601610f1d565b610f7e81610cc9565b840191505092915050565b7f4e487b7100000000000000000000000000000000000000000000000000000000600052602160045260246000fd5b60028110610fc957610fc8610f89565b5b50565b6000819050610fda82610fb8565b919050565b6000610fea82610fcc565b9050919050565b610ffa81610fdf565b82525050565b600073ffffffffffffffffffffffffffffffffffffffff82169050919050565b600061102b82611000565b9050919050565b61103b81611020565b82525050565b600060c0830160008301516110596000860182610ef2565b50602083015184820360208601526110718282610f50565b9150506040830151848203604086015261108b8282610f50565b91505060608301516110a06060860182610ef2565b5060808301516110b36080860182610ff1565b5060a08301516110c660a0860182611032565b508091505092915050565b60006110dd8383611041565b905092915050565b6000602082019050919050565b60006110fd82610ec6565b6111078185610ed1565b93508360208202850161111985610ee2565b8060005b85811015611155578484038952815161113685826110d1565b9450611141836110e5565b925060208a0199505060018101905061111d565b50829750879550505050505092915050565b6000602082019050818103600083015261118181846110f2565b905092915050565b60006020828403121561119f5761119e610cb5565b5b60006111ad84828501610e26565b91505092915050565b6111bf81610e05565b82525050565b60006020820190506111da60008301846111b6565b92915050565b600082825260208201905092915050565b60006111fc82610f01565b61120681856111e0565b9350611216818560208601610f1d565b61121f81610cc9565b840191505092915050565b61123381610fdf565b82525050565b61124281611020565b82525050565b600060c08201905061125d60008301896111b6565b818103602083015261126f81886111f1565b9050818103604083015261128381876111f1565b905061129260608301866111b6565b61129f608083018561122a565b6112ac60a0830184611239565b979650505050505050565b60006020820190506112cc6000830184611239565b92915050565b7f54617267657420616d6f756e74206d757374206265206772656174657220746860008201527f616e207a65726f00000000000000000000000000000000000000000000000000602082015250565b600061132e6027836111e0565b9150611339826112d2565b604082019050919050565b6000602082019050818103600083015261135d81611321565b9050919050565b600060608201905061137960008301866111b6565b6113866020830185611239565b61139360408301846111b6565b949350505050565b7f4e487b7100000000000000000000000000000000000000000000000000000000600052601160045260246000fd5b60006113d582610e05565b91507fffffffffffffffffffffffffffffffffffffffffffffffffffffffffffffffff82036114075761140661139b565b5b600182019050919050565b7f4e487b7100000000000000000000000000000000000000000000000000000000600052602260045260246000fd5b6000600282049050600182168061145957607f821691505b60208210810361146c5761146b611412565b5b50919050565b7f4e487b7100000000000000000000000000000000000000000000000000000000600052603260045260246000fd5b7f4361736520646f6573206e6f7420657869737400000000000000000000000000600082015250565b60006114d76013836111e0565b91506114e2826114a1565b602082019050919050565b60006020820190508181036000830152611506816114ca565b9050919050565b7f43617365206973206e6f7420696e2070726f6772657373000000000000000000600082015250565b60006115436017836111e0565b915061154e8261150d565b602082019050919050565b6000602082019050818103600083015261157281611536565b9050919050565b7f436861726974792063616e6e6f74206265206120646f6e6f7200000000000000600082015250565b60006115af6019836111e0565b91506115ba82611579565b602082019050919050565b600060208201905081810360008301526115de816115a2565b9050919050565b7f446f6e6174696f6e206d7573742062652067726561746572207468616e203000600082015250565b600061161b601f836111e0565b9150611626826115e5565b602082019050919050565b6000602082019050818103600083015261164a8161160e565b9050919050565b600061165c82610e05565b915061166783610e05565b9250827fffffffffffffffffffffffffffffffffffffffffffffffffffffffffffffffff0382111561169c5761169b61139b565b5b828201905092915050565b60006080820190506116bc60008301876111b6565b6116c96020830186611239565b6116d660408301856111b6565b6116e360608301846111b6565b9594505050505056fea26469706673582212204b8da94ad7f6fbf9f97db3b25ea82808a77855b958cbe5045e20bec813201c5264736f6c634300080d0033",
  "immutableReferences": {},
  "source": "// SPDX-License-Identifier: MIT\npragma solidity >=0.8.0 <0.9.0;\n\ncontract Charity {\n    enum CaseStatus {\n        InProgress,\n        Completed\n    }\n\n    struct DonationCase {\n        uint256 id;\n        string title;\n        string description;\n        uint256 targetAmount;\n        CaseStatus status;\n        address beneficiary;\n    }\n\n    address public trustee;\n    uint256 private nextCaseId;\n    mapping(uint256 => DonationCase) public cases;\n    mapping(uint256 => uint256) public currentAmount; // Tracks the amount collected for each case\n\n    event CaseCreated(uint256 caseId, address createdBy, uint256 timestamp);\n    event CaseCompleted(uint256 caseId);\n    event Donate(\n        uint256 caseId,\n        address donor,\n        uint256 amount,\n        uint256 timestamp\n    );\n\n    constructor() {\n        trustee = msg.sender; // The creator of the contract is the trustee\n    }\n\n    function createCaseByNeedy(\n        string memory _title,\n        string memory _description,\n        uint256 _targetAmount\n    ) public {\n        require(_targetAmount > 0, \"Target amount must be greater than zero\");\n\n        DonationCase memory newCase = DonationCase({\n            id: nextCaseId,\n            title: _title,\n            description: _description,\n            targetAmount: _targetAmount,\n            status: CaseStatus.InProgress,\n            beneficiary: msg.sender\n        });\n\n        cases[nextCaseId] = newCase;\n        emit CaseCreated(nextCaseId, msg.sender, block.timestamp);\n        nextCaseId++;\n    }\n\n    function donate(uint256 _caseId) public payable {\n        require(cases[_caseId].id == _caseId, \"Case does not exist\");\n        require(\n            cases[_caseId].status == CaseStatus.InProgress,\n            \"Case is not in progress\"\n        );\n        require(msg.sender != trustee, \"Charity cannot be a donor\");\n        require(msg.value > 0, \"Donation must be greater than 0\");\n\n        currentAmount[_caseId] += msg.value;\n        payable(cases[_caseId].beneficiary).transfer(msg.value); // Transfer the donation amount to the beneficiary\n\n        if (currentAmount[_caseId] >= cases[_caseId].targetAmount) {\n            cases[_caseId].status = CaseStatus.Completed;\n            emit CaseCompleted(_caseId);\n        }\n\n        emit Donate(_caseId, msg.sender, msg.value, block.timestamp);\n    }\n\n\n    function listActiveCases() public view returns (DonationCase[] memory) {\n        uint256 activeCount = 0;\n        for (uint256 i = 0; i < nextCaseId; i++) {\n            if (cases[i].status == CaseStatus.InProgress) {\n                activeCount++;\n            }\n        }\n\n        DonationCase[] memory activeCases = new DonationCase[](activeCount);\n        uint256 currentIndex = 0;\n        for (uint256 i = 0; i < nextCaseId; i++) {\n            if (cases[i].status == CaseStatus.InProgress) {\n                activeCases[currentIndex] = cases[i];\n                currentIndex++;\n            }\n        }\n        return activeCases;\n    }\n}",
  "sourcePath": "/Users/divgi/Documents/VSCode_Projects/crypto-donation-system/contracts/Charity.sol",
  "compiler": {
    "name": "solc",
    "version": "0.8.13+commit.abaa5c0e.Emscripten.clang"
  },
  "schemaVersion": "3.4.16",
  "updatedAt": "2023-12-02T01:37:15.169Z",
  "networkType": "ethereum",
  "devdoc": {
    "kind": "dev",
    "methods": {},
    "version": 1
  },
  "userdoc": {
    "kind": "user",
    "methods": {},
    "version": 1
  }
}