{
  "contractName": "CharityDonation",
  "abi": [
    {
      "inputs": [],
      "stateMutability": "nonpayable",
      "type": "constructor"
    },
    {
      "anonymous": false,
      "inputs": [
        {
          "indexed": false,
          "internalType": "uint256",
          "name": "caseId",
          "type": "uint256"
        },
        {
          "indexed": false,
          "internalType": "address",
          "name": "needy",
          "type": "address"
        }
      ],
      "name": "CaseApproved",
      "type": "event"
    },
    {
      "anonymous": false,
      "inputs": [
        {
          "indexed": false,
          "internalType": "uint256",
          "name": "caseId",
          "type": "uint256"
        }
      ],
      "name": "CaseCompleted",
      "type": "event"
    },
    {
      "anonymous": false,
      "inputs": [
        {
          "indexed": false,
          "internalType": "uint256",
          "name": "caseId",
          "type": "uint256"
        },
        {
          "indexed": false,
          "internalType": "address",
          "name": "createdBy",
          "type": "address"
        },
        {
          "indexed": false,
          "internalType": "uint256",
          "name": "timestamp",
          "type": "uint256"
        }
      ],
      "name": "CaseCreated",
      "type": "event"
    },
    {
      "anonymous": false,
      "inputs": [
        {
          "indexed": false,
          "internalType": "uint256",
          "name": "caseId",
          "type": "uint256"
        },
        {
          "indexed": false,
          "internalType": "uint256",
          "name": "evaluation",
          "type": "uint256"
        }
      ],
      "name": "CaseEvaluated",
      "type": "event"
    },
    {
      "anonymous": false,
      "inputs": [
        {
          "indexed": false,
          "internalType": "uint256",
          "name": "caseId",
          "type": "uint256"
        },
        {
          "indexed": false,
          "internalType": "address",
          "name": "needy",
          "type": "address"
        }
      ],
      "name": "CaseRejected",
      "type": "event"
    },
    {
      "anonymous": false,
      "inputs": [
        {
          "indexed": false,
          "internalType": "uint256",
          "name": "caseId",
          "type": "uint256"
        },
        {
          "indexed": false,
          "internalType": "enum CharityDonation.CaseStatus",
          "name": "status",
          "type": "uint8"
        }
      ],
      "name": "CaseStatusChanged",
      "type": "event"
    },
    {
      "anonymous": false,
      "inputs": [
        {
          "indexed": false,
          "internalType": "uint256",
          "name": "caseId",
          "type": "uint256"
        },
        {
          "indexed": false,
          "internalType": "address",
          "name": "donor",
          "type": "address"
        },
        {
          "indexed": false,
          "internalType": "uint256",
          "name": "amount",
          "type": "uint256"
        },
        {
          "indexed": false,
          "internalType": "uint256",
          "name": "timestamp",
          "type": "uint256"
        }
      ],
      "name": "Donate",
      "type": "event"
    },
    {
      "anonymous": false,
      "inputs": [
        {
          "indexed": false,
          "internalType": "address",
          "name": "donor",
          "type": "address"
        },
        {
          "indexed": false,
          "internalType": "uint256",
          "name": "amount",
          "type": "uint256"
        }
      ],
      "name": "RefundIssued",
      "type": "event"
    },
    {
      "inputs": [],
      "name": "adminFeePercentage",
      "outputs": [
        {
          "internalType": "uint256",
          "name": "",
          "type": "uint256"
        }
      ],
      "stateMutability": "view",
      "type": "function"
    },
    {
      "inputs": [
        {
          "internalType": "uint256",
          "name": "",
          "type": "uint256"
        }
      ],
      "name": "cases",
      "outputs": [
        {
          "internalType": "uint256",
          "name": "id",
          "type": "uint256"
        },
        {
          "internalType": "string",
          "name": "description",
          "type": "string"
        },
        {
          "internalType": "uint256",
          "name": "targetAmount",
          "type": "uint256"
        },
        {
          "internalType": "enum CharityDonation.CaseStatus",
          "name": "status",
          "type": "uint8"
        },
        {
          "internalType": "uint256",
          "name": "evaluation",
          "type": "uint256"
        },
        {
          "internalType": "address",
          "name": "beneficiary",
          "type": "address"
        }
      ],
      "stateMutability": "view",
      "type": "function"
    },
    {
      "inputs": [
        {
          "internalType": "uint256",
          "name": "",
          "type": "uint256"
        }
      ],
      "name": "currentAmount",
      "outputs": [
        {
          "internalType": "uint256",
          "name": "",
          "type": "uint256"
        }
      ],
      "stateMutability": "view",
      "type": "function"
    },
    {
      "inputs": [],
      "name": "trustee",
      "outputs": [
        {
          "internalType": "address",
          "name": "",
          "type": "address"
        }
      ],
      "stateMutability": "view",
      "type": "function"
    },
    {
      "inputs": [
        {
          "internalType": "string",
          "name": "_description",
          "type": "string"
        },
        {
          "internalType": "uint256",
          "name": "_targetAmount",
          "type": "uint256"
        }
      ],
      "name": "createCaseByNeedy",
      "outputs": [],
      "stateMutability": "nonpayable",
      "type": "function"
    },
    {
      "inputs": [
        {
          "internalType": "uint256",
          "name": "_caseId",
          "type": "uint256"
        },
        {
          "internalType": "uint256",
          "name": "_evaluation",
          "type": "uint256"
        }
      ],
      "name": "createCaseByTrustee",
      "outputs": [],
      "stateMutability": "nonpayable",
      "type": "function"
    },
    {
      "inputs": [
        {
          "internalType": "uint256",
          "name": "_caseId",
          "type": "uint256"
        }
      ],
      "name": "approveCase",
      "outputs": [],
      "stateMutability": "nonpayable",
      "type": "function"
    },
    {
      "inputs": [
        {
          "internalType": "uint256",
          "name": "_caseId",
          "type": "uint256"
        }
      ],
      "name": "rejectCase",
      "outputs": [],
      "stateMutability": "nonpayable",
      "type": "function"
    },
    {
      "inputs": [
        {
          "internalType": "uint256",
          "name": "_caseId",
          "type": "uint256"
        }
      ],
      "name": "donate",
      "outputs": [],
      "stateMutability": "payable",
      "type": "function"
    }
  ],
  "bytecode": "0x6080604052600560045534801561001557600080fd5b50336000806101000a81548173ffffffffffffffffffffffffffffffffffffffff021916908373ffffffffffffffffffffffffffffffffffffffff160217905550611841806100656000396000f3fe6080604052600436106100865760003560e01c8063d5bcffcf11610059578063d5bcffcf14610131578063e73f3f6e1461015a578063f09790dd14610197578063f14faf6f146101d9578063fdf97cb2146101f557610086565b80632222cc8e1461008b5780635e8cd9f0146100b45780637897c667146100dd578063831490f914610106575b600080fd5b34801561009757600080fd5b506100b260048036038101906100ad9190610ee0565b610220565b005b3480156100c057600080fd5b506100db60048036038101906100d69190610f20565b610346565b005b3480156100e957600080fd5b5061010460048036038101906100ff9190610f20565b610513565b005b34801561011257600080fd5b5061011b6106e0565b6040516101289190610f5c565b60405180910390f35b34801561013d57600080fd5b50610158600480360381019061015391906110bd565b6106e6565b005b34801561016657600080fd5b50610181600480360381019061017c9190610f20565b610868565b60405161018e9190610f5c565b60405180910390f35b3480156101a357600080fd5b506101be60048036038101906101b99190610f20565b610880565b6040516101d096959493929190611259565b60405180910390f35b6101f360048036038101906101ee9190610f20565b610971565b005b34801561020157600080fd5b5061020a610dcf565b60405161021791906112c1565b60405180910390f35b60008054906101000a900473ffffffffffffffffffffffffffffffffffffffff1673ffffffffffffffffffffffffffffffffffffffff163373ffffffffffffffffffffffffffffffffffffffff16146102ae576040517f08c379a00000000000000000000000000000000000000000000000000000000081526004016102a590611328565b60405180910390fd5b806002600084815260200190815260200160002060040181905550600280600084815260200190815260200160002060030160006101000a81548160ff02191690836005811115610302576103016111a1565b5b02179055507fdd60116079224ad95445e74fd4d9a1126bf74ec58982997c0310dcae2549b1fe6001548260405161033a929190611348565b60405180910390a15050565b60008054906101000a900473ffffffffffffffffffffffffffffffffffffffff1673ffffffffffffffffffffffffffffffffffffffff163373ffffffffffffffffffffffffffffffffffffffff16146103d4576040517f08c379a00000000000000000000000000000000000000000000000000000000081526004016103cb90611328565b60405180910390fd5b600160058111156103e8576103e76111a1565b5b6002600083815260200190815260200160002060030160009054906101000a900460ff16600581111561041e5761041d6111a1565b5b1461045e576040517f08c379a0000000000000000000000000000000000000000000000000000000008152600401610455906113bd565b60405180910390fd5b60046002600083815260200190815260200160002060030160006101000a81548160ff02191690836005811115610498576104976111a1565b5b02179055507f194c1a93a64f9a9d95aaaeea888f18d8b2a87a02383bfac2cb270170676d23fe8160046040516104cf9291906113dd565b60405180910390a17f0636f32369c854bb4f09930720a9e1079efb86f7b12213021927b596a8c48a988133604051610508929190611406565b60405180910390a150565b60008054906101000a900473ffffffffffffffffffffffffffffffffffffffff1673ffffffffffffffffffffffffffffffffffffffff163373ffffffffffffffffffffffffffffffffffffffff16146105a1576040517f08c379a000000000000000000000000000000000000000000000000000000000815260040161059890611328565b60405180910390fd5b600160058111156105b5576105b46111a1565b5b6002600083815260200190815260200160002060030160009054906101000a900460ff1660058111156105eb576105ea6111a1565b5b1461062b576040517f08c379a0000000000000000000000000000000000000000000000000000000008152600401610622906113bd565b60405180910390fd5b60056002600083815260200190815260200160002060030160006101000a81548160ff02191690836005811115610665576106646111a1565b5b02179055507f194c1a93a64f9a9d95aaaeea888f18d8b2a87a02383bfac2cb270170676d23fe81600560405161069c9291906113dd565b60405180910390a17f5dc196bdd8498767c02ba62fe7841b2d10d31e9f566b21277bc9821feed6e15581336040516106d5929190611406565b60405180910390a150565b60045481565b60006040518060c0016040528060015481526020018481526020018381526020016001600581111561071b5761071a6111a1565b5b8152602001600081526020013373ffffffffffffffffffffffffffffffffffffffff1681525090508060026000600154815260200190815260200160002060008201518160000155602082015181600101908051906020019061077f929190610df3565b506040820151816002015560608201518160030160006101000a81548160ff021916908360058111156107b5576107b46111a1565b5b02179055506080820151816004015560a08201518160050160006101000a81548173ffffffffffffffffffffffffffffffffffffffff021916908373ffffffffffffffffffffffffffffffffffffffff1602179055509050507fd104dde728c24c98387d74ddef6bdc5eea0e094fc17fdfa4a76da8e49323711c60015433426040516108439392919061142f565b60405180910390a16001600081548092919061085e90611495565b9190505550505050565b60036020528060005260406000206000915090505481565b60026020528060005260406000206000915090508060000154908060010180546108a99061150c565b80601f01602080910402602001604051908101604052809291908181526020018280546108d59061150c565b80156109225780601f106108f757610100808354040283529160200191610922565b820191906000526020600020905b81548152906001019060200180831161090557829003601f168201915b5050505050908060020154908060030160009054906101000a900460ff16908060040154908060050160009054906101000a900473ffffffffffffffffffffffffffffffffffffffff16905086565b60026005811115610985576109846111a1565b5b6002600083815260200190815260200160002060030160009054906101000a900460ff1660058111156109bb576109ba6111a1565b5b146109fb576040517f08c379a00000000000000000000000000000000000000000000000000000000081526004016109f290611589565b60405180910390fd5b60003411610a3e576040517f08c379a0000000000000000000000000000000000000000000000000000000008152600401610a35906115f5565b60405180910390fd5b60036005811115610a5257610a516111a1565b5b6002600083815260200190815260200160002060030160009054906101000a900460ff166005811115610a8857610a876111a1565b5b03610ac8576040517f08c379a0000000000000000000000000000000000000000000000000000000008152600401610abf90611687565b60405180910390fd5b600580811115610adb57610ada6111a1565b5b6002600083815260200190815260200160002060030160009054906101000a900460ff166005811115610b1157610b106111a1565b5b03610b51576040517f08c379a0000000000000000000000000000000000000000000000000000000008152600401610b48906116f3565b60405180910390fd5b6000803490506000816003600086815260200190815260200160002054610b789190611713565b90506002600085815260200190815260200160002060020154811115610c4b57600260008581526020019081526020016000206002015481610bba9190611769565b92508282610bc89190611769565b91503373ffffffffffffffffffffffffffffffffffffffff166108fc849081150290604051600060405180830381858888f19350505050158015610c10573d6000803e3d6000fd5b507fa171b6942063c6f2800ce40a780edce37baa2b618571b11eedd1e69e626e7d763384604051610c4292919061179d565b60405180910390a15b81600360008681526020019081526020016000206000828254610c6e9190611713565b9250508190555060008290506002600086815260200190815260200160002060050160009054906101000a900473ffffffffffffffffffffffffffffffffffffffff1673ffffffffffffffffffffffffffffffffffffffff166108fc829081150290604051600060405180830381858888f19350505050158015610cf6573d6000803e3d6000fd5b5060026000868152602001908152602001600020600201548210610d8b5760036002600087815260200190815260200160002060030160006101000a81548160ff02191690836005811115610d4e57610d4d6111a1565b5b02179055507fc4942a26c7fc82969759ab441f3d3795870e601d88515c476c5ba2648715b81085604051610d829190610f5c565b60405180910390a15b7f5b578d01c6d050393499c6be922240a8c6b29718e1312285d344f23a5b1ceba385338542604051610dc094939291906117c6565b60405180910390a15050505050565b60008054906101000a900473ffffffffffffffffffffffffffffffffffffffff1681565b828054610dff9061150c565b90600052602060002090601f016020900481019282610e215760008555610e68565b82601f10610e3a57805160ff1916838001178555610e68565b82800160010185558215610e68579182015b82811115610e67578251825591602001919060010190610e4c565b5b509050610e759190610e79565b5090565b5b80821115610e92576000816000905550600101610e7a565b5090565b6000604051905090565b600080fd5b600080fd5b6000819050919050565b610ebd81610eaa565b8114610ec857600080fd5b50565b600081359050610eda81610eb4565b92915050565b60008060408385031215610ef757610ef6610ea0565b5b6000610f0585828601610ecb565b9250506020610f1685828601610ecb565b9150509250929050565b600060208284031215610f3657610f35610ea0565b5b6000610f4484828501610ecb565b91505092915050565b610f5681610eaa565b82525050565b6000602082019050610f716000830184610f4d565b92915050565b600080fd5b600080fd5b6000601f19601f8301169050919050565b7f4e487b7100000000000000000000000000000000000000000000000000000000600052604160045260246000fd5b610fca82610f81565b810181811067ffffffffffffffff82111715610fe957610fe8610f92565b5b80604052505050565b6000610ffc610e96565b90506110088282610fc1565b919050565b600067ffffffffffffffff82111561102857611027610f92565b5b61103182610f81565b9050602081019050919050565b82818337600083830152505050565b600061106061105b8461100d565b610ff2565b90508281526020810184848401111561107c5761107b610f7c565b5b61108784828561103e565b509392505050565b600082601f8301126110a4576110a3610f77565b5b81356110b484826020860161104d565b91505092915050565b600080604083850312156110d4576110d3610ea0565b5b600083013567ffffffffffffffff8111156110f2576110f1610ea5565b5b6110fe8582860161108f565b925050602061110f85828601610ecb565b9150509250929050565b600081519050919050565b600082825260208201905092915050565b60005b83811015611153578082015181840152602081019050611138565b83811115611162576000848401525b50505050565b600061117382611119565b61117d8185611124565b935061118d818560208601611135565b61119681610f81565b840191505092915050565b7f4e487b7100000000000000000000000000000000000000000000000000000000600052602160045260246000fd5b600681106111e1576111e06111a1565b5b50565b60008190506111f2826111d0565b919050565b6000611202826111e4565b9050919050565b611212816111f7565b82525050565b600073ffffffffffffffffffffffffffffffffffffffff82169050919050565b600061124382611218565b9050919050565b61125381611238565b82525050565b600060c08201905061126e6000830189610f4d565b81810360208301526112808188611168565b905061128f6040830187610f4d565b61129c6060830186611209565b6112a96080830185610f4d565b6112b660a083018461124a565b979650505050505050565b60006020820190506112d6600083018461124a565b92915050565b7f43616c6c6572206973206e6f7420746865207472757374656500000000000000600082015250565b6000611312601983611124565b915061131d826112dc565b602082019050919050565b6000602082019050818103600083015261134181611305565b9050919050565b600060408201905061135d6000830185610f4d565b61136a6020830184610f4d565b9392505050565b7f43617365206973206e6f7420696e2050726f63657373696e6720737461747573600082015250565b60006113a7602083611124565b91506113b282611371565b602082019050919050565b600060208201905081810360008301526113d68161139a565b9050919050565b60006040820190506113f26000830185610f4d565b6113ff6020830184611209565b9392505050565b600060408201905061141b6000830185610f4d565b611428602083018461124a565b9392505050565b60006060820190506114446000830186610f4d565b611451602083018561124a565b61145e6040830184610f4d565b949350505050565b7f4e487b7100000000000000000000000000000000000000000000000000000000600052601160045260246000fd5b60006114a082610eaa565b91507fffffffffffffffffffffffffffffffffffffffffffffffffffffffffffffffff82036114d2576114d1611466565b5b600182019050919050565b7f4e487b7100000000000000000000000000000000000000000000000000000000600052602260045260246000fd5b6000600282049050600182168061152457607f821691505b602082108103611537576115366114dd565b5b50919050565b7f43617365206d75737420626520696e204576616c756174656420737461747573600082015250565b6000611573602083611124565b915061157e8261153d565b602082019050919050565b600060208201905081810360008301526115a281611566565b9050919050565b7f446f6e6174696f6e206d7573742062652067726561746572207468616e203000600082015250565b60006115df601f83611124565b91506115ea826115a9565b602082019050919050565b6000602082019050818103600083015261160e816115d2565b9050919050565b7f43617365206d757374206e6f7420626520696e20436f6d706c6574656420737460008201527f6174757300000000000000000000000000000000000000000000000000000000602082015250565b6000611671602483611124565b915061167c82611615565b604082019050919050565b600060208201905081810360008301526116a081611664565b9050919050565b7f43617365206d757374206e6f742062652052656a656374656400000000000000600082015250565b60006116dd601983611124565b91506116e8826116a7565b602082019050919050565b6000602082019050818103600083015261170c816116d0565b9050919050565b600061171e82610eaa565b915061172983610eaa565b9250827fffffffffffffffffffffffffffffffffffffffffffffffffffffffffffffffff0382111561175e5761175d611466565b5b828201905092915050565b600061177482610eaa565b915061177f83610eaa565b92508282101561179257611791611466565b5b828203905092915050565b60006040820190506117b2600083018561124a565b6117bf6020830184610f4d565b9392505050565b60006080820190506117db6000830187610f4d565b6117e8602083018661124a565b6117f56040830185610f4d565b6118026060830184610f4d565b9594505050505056fea264697066735822122038950731cbd9d89084f7b355e5d74aac0ca48c473c63706de0bcfa796fbfe6b464736f6c634300080d0033",
  "immutableReferences": {},
  "source": "// SPDX-License-Identifier: MIT\npragma solidity >=0.8.0 <0.9.0;\n\ncontract CharityDonation {\n    enum CaseStatus { Pending, Processing, Evaluated, Completed, Approved, Rejected }\n\n    struct DonationCase {\n        uint id;\n        string description;\n        uint targetAmount;\n        CaseStatus status;\n        uint evaluation;\n        address beneficiary;\n    }\n\n    address public trustee;\n    uint private nextCaseId;\n    mapping(uint => DonationCase) public cases;\n    mapping(uint => uint) public currentAmount; // Tracks the amount collected for each case\n\n    // Assuming calcPercentages is a function that calculates administrative fees\n    // and the amount to be sent to the needy. You would need to define this based on your needs.\n    // For simplicity, this example will just send a fixed percentage to the trustee as fees.\n    uint public adminFeePercentage = 5; // 5% administrative fee\n\n    event CaseCreated(uint caseId, address createdBy, uint timestamp);\n    event CaseStatusChanged(uint caseId, CaseStatus status);\n    event CaseEvaluated(uint caseId, uint evaluation);\n    event CaseApproved(uint caseId, address needy);\n    event CaseRejected(uint caseId, address needy);\n    event Donate(uint caseId, address donor, uint amount, uint timestamp);\n    event CaseCompleted(uint caseId);\n    event RefundIssued(address donor, uint amount);\n\n    modifier onlyTrustee() {\n        require(msg.sender == trustee, \"Caller is not the trustee\");\n        _;\n    }\n\n    constructor() {\n        trustee = msg.sender; // The creator of the contract is the trustee\n    }\n\n    function createCaseByNeedy(string memory _description, uint _targetAmount) public {\n        DonationCase memory newCase = DonationCase({\n            id: nextCaseId,\n            description: _description,\n            targetAmount: _targetAmount,\n            status: CaseStatus.Processing,\n            evaluation: 0,\n            beneficiary: msg.sender\n        });\n\n        cases[nextCaseId] = newCase;\n        emit CaseCreated(nextCaseId, msg.sender, block.timestamp);\n        nextCaseId++;\n    }\n\n    function createCaseByTrustee(uint _caseId, uint _evaluation) public onlyTrustee {\n        cases[_caseId].evaluation = _evaluation;\n        cases[_caseId].status = CaseStatus.Evaluated;\n        emit CaseEvaluated(nextCaseId, _evaluation);\n    }\n\n    function approveCase(uint _caseId) public onlyTrustee {\n        require(cases[_caseId].status == CaseStatus.Processing, \"Case is not in Processing status\");\n        \n        cases[_caseId].status = CaseStatus.Approved;\n        emit CaseStatusChanged(_caseId, CaseStatus.Approved);\n        emit CaseApproved(_caseId, msg.sender);\n    }\n\n    function rejectCase(uint _caseId) public onlyTrustee {\n        require(cases[_caseId].status == CaseStatus.Processing, \"Case is not in Processing status\");\n        \n        cases[_caseId].status = CaseStatus.Rejected;\n        emit CaseStatusChanged(_caseId, CaseStatus.Rejected);\n        emit CaseRejected(_caseId, msg.sender);\n    }\n\n    // The donate function allows a donor to donate to a specific case by its ID.\n    function donate(uint _caseId) public payable {\n        require(cases[_caseId].status == CaseStatus.Evaluated, \"Case must be in Evaluated status\");\n        require(msg.value > 0, \"Donation must be greater than 0\");\n        require(cases[_caseId].status != CaseStatus.Completed, \"Case must not be in Completed status\");\n        require(cases[_caseId].status != CaseStatus.Rejected, \"Case must not be Rejected\");\n\n        uint refundAmount = 0;\n        uint donationAmount = msg.value;\n        uint newAmount = currentAmount[_caseId] + donationAmount;\n\n        if (newAmount > cases[_caseId].targetAmount) {\n            refundAmount = newAmount - cases[_caseId].targetAmount;\n            donationAmount -= refundAmount;\n            payable(msg.sender).transfer(refundAmount); // Refund the excess to the donor\n            emit RefundIssued(msg.sender, refundAmount);\n        }\n\n        currentAmount[_caseId] += donationAmount;\n        //uint adminFee = (donationAmount * adminFeePercentage) / 100;\n        uint needyAmount = donationAmount;\n\n        //payable(trustee).transfer(adminFee); // Transfer the admin fee to the trustee\n        payable(cases[_caseId].beneficiary).transfer(needyAmount); // Transfer the remaining amount to the needy\n\n        if (newAmount >= cases[_caseId].targetAmount) {\n            cases[_caseId].status = CaseStatus.Completed;\n            emit CaseCompleted(_caseId);\n        }\n\n        emit Donate(_caseId, msg.sender, donationAmount, block.timestamp);\n    }\n}",
  "sourcePath": "/Users/divgi/Documents/VSCode_Projects/crypto-donation-system/contracts/CharityDonation.sol",
  "compiler": {
    "name": "solc",
    "version": "0.8.13+commit.abaa5c0e.Emscripten.clang"
  },
  "schemaVersion": "3.4.16",
  "updatedAt": "2023-12-02T01:36:16.257Z",
  "devdoc": {
    "kind": "dev",
    "methods": {},
    "version": 1
  },
  "userdoc": {
    "kind": "user",
    "methods": {},
    "version": 1
  }
}