{
  "contractName": "Charity",
  "abi": [
    {
      "inputs": [],
      "stateMutability": "nonpayable",
      "type": "constructor"
    },
    {
      "anonymous": false,
      "inputs": [
        {
          "indexed": false,
          "internalType": "uint256",
          "name": "caseId",
          "type": "uint256"
        }
      ],
      "name": "CaseCompleted",
      "type": "event"
    },
    {
      "anonymous": false,
      "inputs": [
        {
          "indexed": false,
          "internalType": "uint256",
          "name": "caseId",
          "type": "uint256"
        },
        {
          "indexed": false,
          "internalType": "address",
          "name": "createdBy",
          "type": "address"
        },
        {
          "indexed": false,
          "internalType": "uint256",
          "name": "timestamp",
          "type": "uint256"
        }
      ],
      "name": "CaseCreated",
      "type": "event"
    },
    {
      "anonymous": false,
      "inputs": [
        {
          "indexed": false,
          "internalType": "uint256",
          "name": "caseId",
          "type": "uint256"
        },
        {
          "indexed": false,
          "internalType": "address",
          "name": "donor",
          "type": "address"
        },
        {
          "indexed": false,
          "internalType": "uint256",
          "name": "amount",
          "type": "uint256"
        },
        {
          "indexed": false,
          "internalType": "uint256",
          "name": "timestamp",
          "type": "uint256"
        }
      ],
      "name": "Donate",
      "type": "event"
    },
    {
      "inputs": [
        {
          "internalType": "uint256",
          "name": "",
          "type": "uint256"
        }
      ],
      "name": "cases",
      "outputs": [
        {
          "internalType": "uint256",
          "name": "id",
          "type": "uint256"
        },
        {
          "internalType": "uint256",
          "name": "targetAmount",
          "type": "uint256"
        },
        {
          "internalType": "enum Charity.CaseStatus",
          "name": "status",
          "type": "uint8"
        },
        {
          "internalType": "address",
          "name": "beneficiary",
          "type": "address"
        },
        {
          "internalType": "string",
          "name": "detailsHash",
          "type": "string"
        },
        {
          "internalType": "string",
          "name": "imageHash",
          "type": "string"
        }
      ],
      "stateMutability": "view",
      "type": "function"
    },
    {
      "inputs": [
        {
          "internalType": "uint256",
          "name": "",
          "type": "uint256"
        }
      ],
      "name": "currentAmount",
      "outputs": [
        {
          "internalType": "uint256",
          "name": "",
          "type": "uint256"
        }
      ],
      "stateMutability": "view",
      "type": "function"
    },
    {
      "inputs": [],
      "name": "trustee",
      "outputs": [
        {
          "internalType": "address",
          "name": "",
          "type": "address"
        }
      ],
      "stateMutability": "view",
      "type": "function"
    },
    {
      "inputs": [
        {
          "internalType": "uint256",
          "name": "_targetAmount",
          "type": "uint256"
        },
        {
          "internalType": "string",
          "name": "_detailsHash",
          "type": "string"
        },
        {
          "internalType": "string",
          "name": "_imageHash",
          "type": "string"
        }
      ],
      "name": "createCaseByBeneficiary",
      "outputs": [],
      "stateMutability": "nonpayable",
      "type": "function"
    },
    {
      "inputs": [
        {
          "internalType": "uint256",
          "name": "_caseId",
          "type": "uint256"
        }
      ],
      "name": "donate",
      "outputs": [],
      "stateMutability": "payable",
      "type": "function"
    },
    {
      "inputs": [],
      "name": "listActiveCases",
      "outputs": [
        {
          "components": [
            {
              "internalType": "uint256",
              "name": "id",
              "type": "uint256"
            },
            {
              "internalType": "uint256",
              "name": "targetAmount",
              "type": "uint256"
            },
            {
              "internalType": "enum Charity.CaseStatus",
              "name": "status",
              "type": "uint8"
            },
            {
              "internalType": "address",
              "name": "beneficiary",
              "type": "address"
            },
            {
              "internalType": "string",
              "name": "detailsHash",
              "type": "string"
            },
            {
              "internalType": "string",
              "name": "imageHash",
              "type": "string"
            }
          ],
          "internalType": "struct Charity.DonationCase[]",
          "name": "",
          "type": "tuple[]"
        }
      ],
      "stateMutability": "view",
      "type": "function"
    }
  ],
  "bytecode": "0x608060405234801561001057600080fd5b50336000806101000a81548173ffffffffffffffffffffffffffffffffffffffff021916908373ffffffffffffffffffffffffffffffffffffffff160217905550611722806100606000396000f3fe6080604052600436106100555760003560e01c8063931a4b8d1461005a578063b13c70fc14610083578063e73f3f6e146100ae578063f09790dd146100eb578063f14faf6f1461012d578063fdf97cb214610149575b600080fd5b34801561006657600080fd5b50610081600480360381019061007c9190610e3b565b610174565b005b34801561008f57600080fd5b5061009861034c565b6040516100a59190611167565b60405180910390f35b3480156100ba57600080fd5b506100d560048036038101906100d09190611189565b6106b4565b6040516100e291906111c5565b60405180910390f35b3480156100f757600080fd5b50610112600480360381019061010d9190611189565b6106cc565b60405161012496959493929190611248565b60405180910390f35b61014760048036038101906101429190611189565b610845565b005b34801561015557600080fd5b5061015e610b86565b60405161016b91906112b7565b60405180910390f35b600083116101b7576040517f08c379a00000000000000000000000000000000000000000000000000000000081526004016101ae90611344565b60405180910390fd5b60006040518060c001604052806001548152602001858152602001600060018111156101e6576101e5610f01565b5b81526020013373ffffffffffffffffffffffffffffffffffffffff16815260200184815260200183815250905080600260006001548152602001908152602001600020600082015181600001556020820151816001015560408201518160020160006101000a81548160ff0219169083600181111561026857610267610f01565b5b021790555060608201518160020160016101000a81548173ffffffffffffffffffffffffffffffffffffffff021916908373ffffffffffffffffffffffffffffffffffffffff16021790555060808201518160030190805190602001906102d0929190610baa565b5060a08201518160040190805190602001906102ed929190610baa565b509050507fd104dde728c24c98387d74ddef6bdc5eea0e094fc17fdfa4a76da8e49323711c600154334260405161032693929190611364565b60405180910390a160016000815480929190610341906113ca565b919050555050505050565b60606000805b6001548110156103cd57600060018111156103705761036f610f01565b5b6002600083815260200190815260200160002060020160009054906101000a900460ff1660018111156103a6576103a5610f01565b5b036103ba5781806103b6906113ca565b9250505b80806103c5906113ca565b915050610352565b5060008167ffffffffffffffff8111156103ea576103e9610d10565b5b60405190808252806020026020018201604052801561042357816020015b610410610c30565b8152602001906001900390816104085790505b5090506000805b6001548110156106aa576000600181111561044857610447610f01565b5b6002600083815260200190815260200160002060020160009054906101000a900460ff16600181111561047e5761047d610f01565b5b0361069757600260008281526020019081526020016000206040518060c001604052908160008201548152602001600182015481526020016002820160009054906101000a900460ff1660018111156104da576104d9610f01565b5b60018111156104ec576104eb610f01565b5b81526020016002820160019054906101000a900473ffffffffffffffffffffffffffffffffffffffff1673ffffffffffffffffffffffffffffffffffffffff1673ffffffffffffffffffffffffffffffffffffffff16815260200160038201805461055690611441565b80601f016020809104026020016040519081016040528092919081815260200182805461058290611441565b80156105cf5780601f106105a4576101008083540402835291602001916105cf565b820191906000526020600020905b8154815290600101906020018083116105b257829003601f168201915b505050505081526020016004820180546105e890611441565b80601f016020809104026020016040519081016040528092919081815260200182805461061490611441565b80156106615780601f1061063657610100808354040283529160200191610661565b820191906000526020600020905b81548152906001019060200180831161064457829003601f168201915b50505050508152505083838151811061067d5761067c611472565b5b60200260200101819052508180610693906113ca565b9250505b80806106a2906113ca565b91505061042a565b5081935050505090565b60036020528060005260406000206000915090505481565b60026020528060005260406000206000915090508060000154908060010154908060020160009054906101000a900460ff16908060020160019054906101000a900473ffffffffffffffffffffffffffffffffffffffff169080600301805461073490611441565b80601f016020809104026020016040519081016040528092919081815260200182805461076090611441565b80156107ad5780601f10610782576101008083540402835291602001916107ad565b820191906000526020600020905b81548152906001019060200180831161079057829003601f168201915b5050505050908060040180546107c290611441565b80601f01602080910402602001604051908101604052809291908181526020018280546107ee90611441565b801561083b5780601f106108105761010080835404028352916020019161083b565b820191906000526020600020905b81548152906001019060200180831161081e57829003601f168201915b5050505050905086565b8060026000838152602001908152602001600020600001541461089d576040517f08c379a0000000000000000000000000000000000000000000000000000000008152600401610894906114ed565b60405180910390fd5b600060018111156108b1576108b0610f01565b5b6002600083815260200190815260200160002060020160009054906101000a900460ff1660018111156108e7576108e6610f01565b5b14610927576040517f08c379a000000000000000000000000000000000000000000000000000000000815260040161091e90611559565b60405180910390fd5b60008054906101000a900473ffffffffffffffffffffffffffffffffffffffff1673ffffffffffffffffffffffffffffffffffffffff163373ffffffffffffffffffffffffffffffffffffffff16036109b5576040517f08c379a00000000000000000000000000000000000000000000000000000000081526004016109ac906115c5565b60405180910390fd5b600034116109f8576040517f08c379a00000000000000000000000000000000000000000000000000000000081526004016109ef90611631565b60405180910390fd5b34600360008381526020019081526020016000206000828254610a1b9190611651565b925050819055506002600082815260200190815260200160002060020160019054906101000a900473ffffffffffffffffffffffffffffffffffffffff1673ffffffffffffffffffffffffffffffffffffffff166108fc349081150290604051600060405180830381858888f19350505050158015610a9e573d6000803e3d6000fd5b506002600082815260200190815260200160002060010154600360008381526020019081526020016000205410610b465760016002600083815260200190815260200160002060020160006101000a81548160ff02191690836001811115610b0957610b08610f01565b5b02179055507fc4942a26c7fc82969759ab441f3d3795870e601d88515c476c5ba2648715b81081604051610b3d91906111c5565b60405180910390a15b7f5b578d01c6d050393499c6be922240a8c6b29718e1312285d344f23a5b1ceba381333442604051610b7b94939291906116a7565b60405180910390a150565b60008054906101000a900473ffffffffffffffffffffffffffffffffffffffff1681565b828054610bb690611441565b90600052602060002090601f016020900481019282610bd85760008555610c1f565b82601f10610bf157805160ff1916838001178555610c1f565b82800160010185558215610c1f579182015b82811115610c1e578251825591602001919060010190610c03565b5b509050610c2c9190610c8e565b5090565b6040518060c00160405280600081526020016000815260200160006001811115610c5d57610c5c610f01565b5b8152602001600073ffffffffffffffffffffffffffffffffffffffff16815260200160608152602001606081525090565b5b80821115610ca7576000816000905550600101610c8f565b5090565b6000604051905090565b600080fd5b600080fd5b6000819050919050565b610cd281610cbf565b8114610cdd57600080fd5b50565b600081359050610cef81610cc9565b92915050565b600080fd5b600080fd5b6000601f19601f8301169050919050565b7f4e487b7100000000000000000000000000000000000000000000000000000000600052604160045260246000fd5b610d4882610cff565b810181811067ffffffffffffffff82111715610d6757610d66610d10565b5b80604052505050565b6000610d7a610cab565b9050610d868282610d3f565b919050565b600067ffffffffffffffff821115610da657610da5610d10565b5b610daf82610cff565b9050602081019050919050565b82818337600083830152505050565b6000610dde610dd984610d8b565b610d70565b905082815260208101848484011115610dfa57610df9610cfa565b5b610e05848285610dbc565b509392505050565b600082601f830112610e2257610e21610cf5565b5b8135610e32848260208601610dcb565b91505092915050565b600080600060608486031215610e5457610e53610cb5565b5b6000610e6286828701610ce0565b935050602084013567ffffffffffffffff811115610e8357610e82610cba565b5b610e8f86828701610e0d565b925050604084013567ffffffffffffffff811115610eb057610eaf610cba565b5b610ebc86828701610e0d565b9150509250925092565b600081519050919050565b600082825260208201905092915050565b6000819050602082019050919050565b610efb81610cbf565b82525050565b7f4e487b7100000000000000000000000000000000000000000000000000000000600052602160045260246000fd5b60028110610f4157610f40610f01565b5b50565b6000819050610f5282610f30565b919050565b6000610f6282610f44565b9050919050565b610f7281610f57565b82525050565b600073ffffffffffffffffffffffffffffffffffffffff82169050919050565b6000610fa382610f78565b9050919050565b610fb381610f98565b82525050565b600081519050919050565b600082825260208201905092915050565b60005b83811015610ff3578082015181840152602081019050610fd8565b83811115611002576000848401525b50505050565b600061101382610fb9565b61101d8185610fc4565b935061102d818560208601610fd5565b61103681610cff565b840191505092915050565b600060c0830160008301516110596000860182610ef2565b50602083015161106c6020860182610ef2565b50604083015161107f6040860182610f69565b5060608301516110926060860182610faa565b50608083015184820360808601526110aa8282611008565b91505060a083015184820360a08601526110c48282611008565b9150508091505092915050565b60006110dd8383611041565b905092915050565b6000602082019050919050565b60006110fd82610ec6565b6111078185610ed1565b93508360208202850161111985610ee2565b8060005b85811015611155578484038952815161113685826110d1565b9450611141836110e5565b925060208a0199505060018101905061111d565b50829750879550505050505092915050565b6000602082019050818103600083015261118181846110f2565b905092915050565b60006020828403121561119f5761119e610cb5565b5b60006111ad84828501610ce0565b91505092915050565b6111bf81610cbf565b82525050565b60006020820190506111da60008301846111b6565b92915050565b6111e981610f57565b82525050565b6111f881610f98565b82525050565b600082825260208201905092915050565b600061121a82610fb9565b61122481856111fe565b9350611234818560208601610fd5565b61123d81610cff565b840191505092915050565b600060c08201905061125d60008301896111b6565b61126a60208301886111b6565b61127760408301876111e0565b61128460608301866111ef565b8181036080830152611296818561120f565b905081810360a08301526112aa818461120f565b9050979650505050505050565b60006020820190506112cc60008301846111ef565b92915050565b7f54617267657420616d6f756e74206d757374206265206772656174657220746860008201527f616e207a65726f00000000000000000000000000000000000000000000000000602082015250565b600061132e6027836111fe565b9150611339826112d2565b604082019050919050565b6000602082019050818103600083015261135d81611321565b9050919050565b600060608201905061137960008301866111b6565b61138660208301856111ef565b61139360408301846111b6565b949350505050565b7f4e487b7100000000000000000000000000000000000000000000000000000000600052601160045260246000fd5b60006113d582610cbf565b91507fffffffffffffffffffffffffffffffffffffffffffffffffffffffffffffffff82036114075761140661139b565b5b600182019050919050565b7f4e487b7100000000000000000000000000000000000000000000000000000000600052602260045260246000fd5b6000600282049050600182168061145957607f821691505b60208210810361146c5761146b611412565b5b50919050565b7f4e487b7100000000000000000000000000000000000000000000000000000000600052603260045260246000fd5b7f4361736520646f6573206e6f7420657869737400000000000000000000000000600082015250565b60006114d76013836111fe565b91506114e2826114a1565b602082019050919050565b60006020820190508181036000830152611506816114ca565b9050919050565b7f43617365206973206e6f7420696e2070726f6772657373000000000000000000600082015250565b60006115436017836111fe565b915061154e8261150d565b602082019050919050565b6000602082019050818103600083015261157281611536565b9050919050565b7f436861726974792063616e6e6f74206265206120646f6e6f7200000000000000600082015250565b60006115af6019836111fe565b91506115ba82611579565b602082019050919050565b600060208201905081810360008301526115de816115a2565b9050919050565b7f446f6e6174696f6e206d7573742062652067726561746572207468616e203000600082015250565b600061161b601f836111fe565b9150611626826115e5565b602082019050919050565b6000602082019050818103600083015261164a8161160e565b9050919050565b600061165c82610cbf565b915061166783610cbf565b9250827fffffffffffffffffffffffffffffffffffffffffffffffffffffffffffffffff0382111561169c5761169b61139b565b5b828201905092915050565b60006080820190506116bc60008301876111b6565b6116c960208301866111ef565b6116d660408301856111b6565b6116e360608301846111b6565b9594505050505056fea264697066735822122063dedd8b59a53f7343bf3418d07d52be1f7f40c2c09f2e4cdddc69a0aaade0a064736f6c634300080d0033",
  "immutableReferences": {},
  "source": "// SPDX-License-Identifier: MIT\npragma solidity >=0.8.0 <0.9.0;\n\ncontract Charity {\n    enum CaseStatus {\n        InProgress,\n        Completed\n    }\n\n    struct DonationCase {\n        uint256 id;\n        uint256 targetAmount;\n        CaseStatus status;\n        address beneficiary;\n        string detailsHash;\n        string imageHash;\n    }\n\n    address public trustee;\n    uint256 private nextCaseId;\n    mapping(uint256 => DonationCase) public cases;\n    mapping(uint256 => uint256) public currentAmount; // Tracks the amount collected for each case\n\n    event CaseCreated(uint256 caseId, address createdBy, uint256 timestamp);\n    event CaseCompleted(uint256 caseId);\n    event Donate(\n        uint256 caseId,\n        address donor,\n        uint256 amount,\n        uint256 timestamp\n    );\n\n    constructor() {\n        trustee = msg.sender; // The creator of the contract is the trustee\n    }\n\n    function createCaseByBeneficiary(\n        uint256 _targetAmount,\n        string memory _detailsHash,\n        string memory _imageHash\n    ) public {\n        require(_targetAmount > 0, \"Target amount must be greater than zero\");\n\n        DonationCase memory newCase = DonationCase({\n            id: nextCaseId,\n            targetAmount: _targetAmount,\n            status: CaseStatus.InProgress,\n            beneficiary: msg.sender,\n            detailsHash: _detailsHash,\n            imageHash: _imageHash\n        });\n\n        cases[nextCaseId] = newCase;\n        emit CaseCreated(nextCaseId, msg.sender, block.timestamp);\n        nextCaseId++;\n    }\n\n    function donate(uint256 _caseId) public payable {\n        require(cases[_caseId].id == _caseId, \"Case does not exist\");\n        require(\n            cases[_caseId].status == CaseStatus.InProgress,\n            \"Case is not in progress\"\n        );\n        require(msg.sender != trustee, \"Charity cannot be a donor\");\n        require(msg.value > 0, \"Donation must be greater than 0\");\n\n        currentAmount[_caseId] += msg.value;\n        payable(cases[_caseId].beneficiary).transfer(msg.value); // Transfer the donation amount to the beneficiary\n\n        if (currentAmount[_caseId] >= cases[_caseId].targetAmount) {\n            cases[_caseId].status = CaseStatus.Completed;\n            emit CaseCompleted(_caseId);\n        }\n\n        emit Donate(_caseId, msg.sender, msg.value, block.timestamp);\n    }\n\n\n    function listActiveCases() public view returns (DonationCase[] memory) {\n        uint256 activeCount = 0;\n        for (uint256 i = 0; i < nextCaseId; i++) {\n            if (cases[i].status == CaseStatus.InProgress) {\n                activeCount++;\n            }\n        }\n\n        DonationCase[] memory activeCases = new DonationCase[](activeCount);\n        uint256 currentIndex = 0;\n        for (uint256 i = 0; i < nextCaseId; i++) {\n            if (cases[i].status == CaseStatus.InProgress) {\n                activeCases[currentIndex] = cases[i];\n                currentIndex++;\n            }\n        }\n        return activeCases;\n    }\n}",
  "sourcePath": "/Users/divgi/Documents/VSCode_Projects/crypto-donation-system/contracts/Charity.sol",
  "compiler": {
    "name": "solc",
    "version": "0.8.13+commit.abaa5c0e.Emscripten.clang"
  },
  "schemaVersion": "3.4.16",
  "updatedAt": "2023-12-03T09:41:10.075Z",
  "devdoc": {
    "kind": "dev",
    "methods": {},
    "version": 1
  },
  "userdoc": {
    "kind": "user",
    "methods": {},
    "version": 1
  }
}