{
  "contractName": "CharityDonation",
  "abi": [
    {
      "inputs": [],
      "stateMutability": "nonpayable",
      "type": "constructor"
    },
    {
      "anonymous": false,
      "inputs": [
        {
          "indexed": false,
          "internalType": "uint256",
          "name": "caseId",
          "type": "uint256"
        },
        {
          "indexed": false,
          "internalType": "address",
          "name": "needy",
          "type": "address"
        }
      ],
      "name": "CaseApproved",
      "type": "event"
    },
    {
      "anonymous": false,
      "inputs": [
        {
          "indexed": false,
          "internalType": "uint256",
          "name": "caseId",
          "type": "uint256"
        }
      ],
      "name": "CaseCompleted",
      "type": "event"
    },
    {
      "anonymous": false,
      "inputs": [
        {
          "indexed": false,
          "internalType": "uint256",
          "name": "caseId",
          "type": "uint256"
        },
        {
          "indexed": false,
          "internalType": "address",
          "name": "createdBy",
          "type": "address"
        },
        {
          "indexed": false,
          "internalType": "uint256",
          "name": "timestamp",
          "type": "uint256"
        }
      ],
      "name": "CaseCreated",
      "type": "event"
    },
    {
      "anonymous": false,
      "inputs": [
        {
          "indexed": false,
          "internalType": "uint256",
          "name": "caseId",
          "type": "uint256"
        },
        {
          "indexed": false,
          "internalType": "uint256",
          "name": "evaluation",
          "type": "uint256"
        }
      ],
      "name": "CaseEvaluated",
      "type": "event"
    },
    {
      "anonymous": false,
      "inputs": [
        {
          "indexed": false,
          "internalType": "uint256",
          "name": "caseId",
          "type": "uint256"
        },
        {
          "indexed": false,
          "internalType": "address",
          "name": "needy",
          "type": "address"
        }
      ],
      "name": "CaseRejected",
      "type": "event"
    },
    {
      "anonymous": false,
      "inputs": [
        {
          "indexed": false,
          "internalType": "uint256",
          "name": "caseId",
          "type": "uint256"
        },
        {
          "indexed": false,
          "internalType": "enum CharityDonation.CaseStatus",
          "name": "status",
          "type": "uint8"
        }
      ],
      "name": "CaseStatusChanged",
      "type": "event"
    },
    {
      "anonymous": false,
      "inputs": [
        {
          "indexed": false,
          "internalType": "uint256",
          "name": "caseId",
          "type": "uint256"
        },
        {
          "indexed": false,
          "internalType": "address",
          "name": "donor",
          "type": "address"
        },
        {
          "indexed": false,
          "internalType": "uint256",
          "name": "amount",
          "type": "uint256"
        },
        {
          "indexed": false,
          "internalType": "uint256",
          "name": "timestamp",
          "type": "uint256"
        }
      ],
      "name": "Donate",
      "type": "event"
    },
    {
      "anonymous": false,
      "inputs": [
        {
          "indexed": false,
          "internalType": "address",
          "name": "donor",
          "type": "address"
        },
        {
          "indexed": false,
          "internalType": "uint256",
          "name": "amount",
          "type": "uint256"
        }
      ],
      "name": "RefundIssued",
      "type": "event"
    },
    {
      "inputs": [],
      "name": "adminFeePercentage",
      "outputs": [
        {
          "internalType": "uint256",
          "name": "",
          "type": "uint256"
        }
      ],
      "stateMutability": "view",
      "type": "function"
    },
    {
      "inputs": [
        {
          "internalType": "uint256",
          "name": "",
          "type": "uint256"
        }
      ],
      "name": "cases",
      "outputs": [
        {
          "internalType": "uint256",
          "name": "id",
          "type": "uint256"
        },
        {
          "internalType": "string",
          "name": "description",
          "type": "string"
        },
        {
          "internalType": "uint256",
          "name": "targetAmount",
          "type": "uint256"
        },
        {
          "internalType": "enum CharityDonation.CaseStatus",
          "name": "status",
          "type": "uint8"
        },
        {
          "internalType": "uint256",
          "name": "evaluation",
          "type": "uint256"
        },
        {
          "internalType": "address",
          "name": "beneficiary",
          "type": "address"
        }
      ],
      "stateMutability": "view",
      "type": "function"
    },
    {
      "inputs": [
        {
          "internalType": "uint256",
          "name": "",
          "type": "uint256"
        }
      ],
      "name": "currentAmount",
      "outputs": [
        {
          "internalType": "uint256",
          "name": "",
          "type": "uint256"
        }
      ],
      "stateMutability": "view",
      "type": "function"
    },
    {
      "inputs": [],
      "name": "trustee",
      "outputs": [
        {
          "internalType": "address",
          "name": "",
          "type": "address"
        }
      ],
      "stateMutability": "view",
      "type": "function"
    },
    {
      "inputs": [
        {
          "internalType": "string",
          "name": "_description",
          "type": "string"
        },
        {
          "internalType": "uint256",
          "name": "_targetAmount",
          "type": "uint256"
        }
      ],
      "name": "createCaseByBeneficiary",
      "outputs": [],
      "stateMutability": "nonpayable",
      "type": "function"
    },
    {
      "inputs": [
        {
          "internalType": "uint256",
          "name": "_caseId",
          "type": "uint256"
        },
        {
          "internalType": "uint256",
          "name": "_evaluation",
          "type": "uint256"
        }
      ],
      "name": "createCaseByTrustee",
      "outputs": [],
      "stateMutability": "nonpayable",
      "type": "function"
    },
    {
      "inputs": [
        {
          "internalType": "uint256",
          "name": "_caseId",
          "type": "uint256"
        }
      ],
      "name": "approveCase",
      "outputs": [],
      "stateMutability": "nonpayable",
      "type": "function"
    },
    {
      "inputs": [
        {
          "internalType": "uint256",
          "name": "_caseId",
          "type": "uint256"
        }
      ],
      "name": "rejectCase",
      "outputs": [],
      "stateMutability": "nonpayable",
      "type": "function"
    },
    {
      "inputs": [
        {
          "internalType": "uint256",
          "name": "_caseId",
          "type": "uint256"
        }
      ],
      "name": "donate",
      "outputs": [],
      "stateMutability": "payable",
      "type": "function"
    }
  ],
  "bytecode": "0x6080604052600560045534801561001557600080fd5b50336000806101000a81548173ffffffffffffffffffffffffffffffffffffffff021916908373ffffffffffffffffffffffffffffffffffffffff160217905550611841806100656000396000f3fe6080604052600436106100865760003560e01c8063e73f3f6e11610059578063e73f3f6e14610131578063f09790dd1461016e578063f14faf6f146101b0578063f9df2430146101cc578063fdf97cb2146101f557610086565b80632222cc8e1461008b5780635e8cd9f0146100b45780637897c667146100dd578063831490f914610106575b600080fd5b34801561009757600080fd5b506100b260048036038101906100ad9190610ee0565b610220565b005b3480156100c057600080fd5b506100db60048036038101906100d69190610f20565b610346565b005b3480156100e957600080fd5b5061010460048036038101906100ff9190610f20565b610513565b005b34801561011257600080fd5b5061011b6106e0565b6040516101289190610f5c565b60405180910390f35b34801561013d57600080fd5b5061015860048036038101906101539190610f20565b6106e6565b6040516101659190610f5c565b60405180910390f35b34801561017a57600080fd5b5061019560048036038101906101909190610f20565b6106fe565b6040516101a7969594939291906110c8565b60405180910390f35b6101ca60048036038101906101c59190610f20565b6107ef565b005b3480156101d857600080fd5b506101f360048036038101906101ee9190611265565b610c4d565b005b34801561020157600080fd5b5061020a610dcf565b60405161021791906112c1565b60405180910390f35b60008054906101000a900473ffffffffffffffffffffffffffffffffffffffff1673ffffffffffffffffffffffffffffffffffffffff163373ffffffffffffffffffffffffffffffffffffffff16146102ae576040517f08c379a00000000000000000000000000000000000000000000000000000000081526004016102a590611328565b60405180910390fd5b806002600084815260200190815260200160002060040181905550600280600084815260200190815260200160002060030160006101000a81548160ff0219169083600581111561030257610301611010565b5b02179055507fdd60116079224ad95445e74fd4d9a1126bf74ec58982997c0310dcae2549b1fe6001548260405161033a929190611348565b60405180910390a15050565b60008054906101000a900473ffffffffffffffffffffffffffffffffffffffff1673ffffffffffffffffffffffffffffffffffffffff163373ffffffffffffffffffffffffffffffffffffffff16146103d4576040517f08c379a00000000000000000000000000000000000000000000000000000000081526004016103cb90611328565b60405180910390fd5b600160058111156103e8576103e7611010565b5b6002600083815260200190815260200160002060030160009054906101000a900460ff16600581111561041e5761041d611010565b5b1461045e576040517f08c379a0000000000000000000000000000000000000000000000000000000008152600401610455906113bd565b60405180910390fd5b60046002600083815260200190815260200160002060030160006101000a81548160ff0219169083600581111561049857610497611010565b5b02179055507f194c1a93a64f9a9d95aaaeea888f18d8b2a87a02383bfac2cb270170676d23fe8160046040516104cf9291906113dd565b60405180910390a17f0636f32369c854bb4f09930720a9e1079efb86f7b12213021927b596a8c48a988133604051610508929190611406565b60405180910390a150565b60008054906101000a900473ffffffffffffffffffffffffffffffffffffffff1673ffffffffffffffffffffffffffffffffffffffff163373ffffffffffffffffffffffffffffffffffffffff16146105a1576040517f08c379a000000000000000000000000000000000000000000000000000000000815260040161059890611328565b60405180910390fd5b600160058111156105b5576105b4611010565b5b6002600083815260200190815260200160002060030160009054906101000a900460ff1660058111156105eb576105ea611010565b5b1461062b576040517f08c379a0000000000000000000000000000000000000000000000000000000008152600401610622906113bd565b60405180910390fd5b60056002600083815260200190815260200160002060030160006101000a81548160ff0219169083600581111561066557610664611010565b5b02179055507f194c1a93a64f9a9d95aaaeea888f18d8b2a87a02383bfac2cb270170676d23fe81600560405161069c9291906113dd565b60405180910390a17f5dc196bdd8498767c02ba62fe7841b2d10d31e9f566b21277bc9821feed6e15581336040516106d5929190611406565b60405180910390a150565b60045481565b60036020528060005260406000206000915090505481565b60026020528060005260406000206000915090508060000154908060010180546107279061145e565b80601f01602080910402602001604051908101604052809291908181526020018280546107539061145e565b80156107a05780601f10610775576101008083540402835291602001916107a0565b820191906000526020600020905b81548152906001019060200180831161078357829003601f168201915b5050505050908060020154908060030160009054906101000a900460ff16908060040154908060050160009054906101000a900473ffffffffffffffffffffffffffffffffffffffff16905086565b6002600581111561080357610802611010565b5b6002600083815260200190815260200160002060030160009054906101000a900460ff16600581111561083957610838611010565b5b14610879576040517f08c379a0000000000000000000000000000000000000000000000000000000008152600401610870906114db565b60405180910390fd5b600034116108bc576040517f08c379a00000000000000000000000000000000000000000000000000000000081526004016108b390611547565b60405180910390fd5b600360058111156108d0576108cf611010565b5b6002600083815260200190815260200160002060030160009054906101000a900460ff16600581111561090657610905611010565b5b03610946576040517f08c379a000000000000000000000000000000000000000000000000000000000815260040161093d906115d9565b60405180910390fd5b60058081111561095957610958611010565b5b6002600083815260200190815260200160002060030160009054906101000a900460ff16600581111561098f5761098e611010565b5b036109cf576040517f08c379a00000000000000000000000000000000000000000000000000000000081526004016109c690611645565b60405180910390fd5b60008034905060008160036000868152602001908152602001600020546109f69190611694565b90506002600085815260200190815260200160002060020154811115610ac957600260008581526020019081526020016000206002015481610a3891906116ea565b92508282610a4691906116ea565b91503373ffffffffffffffffffffffffffffffffffffffff166108fc849081150290604051600060405180830381858888f19350505050158015610a8e573d6000803e3d6000fd5b507fa171b6942063c6f2800ce40a780edce37baa2b618571b11eedd1e69e626e7d763384604051610ac092919061171e565b60405180910390a15b81600360008681526020019081526020016000206000828254610aec9190611694565b9250508190555060008290506002600086815260200190815260200160002060050160009054906101000a900473ffffffffffffffffffffffffffffffffffffffff1673ffffffffffffffffffffffffffffffffffffffff166108fc829081150290604051600060405180830381858888f19350505050158015610b74573d6000803e3d6000fd5b5060026000868152602001908152602001600020600201548210610c095760036002600087815260200190815260200160002060030160006101000a81548160ff02191690836005811115610bcc57610bcb611010565b5b02179055507fc4942a26c7fc82969759ab441f3d3795870e601d88515c476c5ba2648715b81085604051610c009190610f5c565b60405180910390a15b7f5b578d01c6d050393499c6be922240a8c6b29718e1312285d344f23a5b1ceba385338542604051610c3e9493929190611747565b60405180910390a15050505050565b60006040518060c00160405280600154815260200184815260200183815260200160016005811115610c8257610c81611010565b5b8152602001600081526020013373ffffffffffffffffffffffffffffffffffffffff16815250905080600260006001548152602001908152602001600020600082015181600001556020820151816001019080519060200190610ce6929190610df3565b506040820151816002015560608201518160030160006101000a81548160ff02191690836005811115610d1c57610d1b611010565b5b02179055506080820151816004015560a08201518160050160006101000a81548173ffffffffffffffffffffffffffffffffffffffff021916908373ffffffffffffffffffffffffffffffffffffffff1602179055509050507fd104dde728c24c98387d74ddef6bdc5eea0e094fc17fdfa4a76da8e49323711c6001543342604051610daa9392919061178c565b60405180910390a160016000815480929190610dc5906117c3565b9190505550505050565b60008054906101000a900473ffffffffffffffffffffffffffffffffffffffff1681565b828054610dff9061145e565b90600052602060002090601f016020900481019282610e215760008555610e68565b82601f10610e3a57805160ff1916838001178555610e68565b82800160010185558215610e68579182015b82811115610e67578251825591602001919060010190610e4c565b5b509050610e759190610e79565b5090565b5b80821115610e92576000816000905550600101610e7a565b5090565b6000604051905090565b600080fd5b600080fd5b6000819050919050565b610ebd81610eaa565b8114610ec857600080fd5b50565b600081359050610eda81610eb4565b92915050565b60008060408385031215610ef757610ef6610ea0565b5b6000610f0585828601610ecb565b9250506020610f1685828601610ecb565b9150509250929050565b600060208284031215610f3657610f35610ea0565b5b6000610f4484828501610ecb565b91505092915050565b610f5681610eaa565b82525050565b6000602082019050610f716000830184610f4d565b92915050565b600081519050919050565b600082825260208201905092915050565b60005b83811015610fb1578082015181840152602081019050610f96565b83811115610fc0576000848401525b50505050565b6000601f19601f8301169050919050565b6000610fe282610f77565b610fec8185610f82565b9350610ffc818560208601610f93565b61100581610fc6565b840191505092915050565b7f4e487b7100000000000000000000000000000000000000000000000000000000600052602160045260246000fd5b600681106110505761104f611010565b5b50565b60008190506110618261103f565b919050565b600061107182611053565b9050919050565b61108181611066565b82525050565b600073ffffffffffffffffffffffffffffffffffffffff82169050919050565b60006110b282611087565b9050919050565b6110c2816110a7565b82525050565b600060c0820190506110dd6000830189610f4d565b81810360208301526110ef8188610fd7565b90506110fe6040830187610f4d565b61110b6060830186611078565b6111186080830185610f4d565b61112560a08301846110b9565b979650505050505050565b600080fd5b600080fd5b7f4e487b7100000000000000000000000000000000000000000000000000000000600052604160045260246000fd5b61117282610fc6565b810181811067ffffffffffffffff821117156111915761119061113a565b5b80604052505050565b60006111a4610e96565b90506111b08282611169565b919050565b600067ffffffffffffffff8211156111d0576111cf61113a565b5b6111d982610fc6565b9050602081019050919050565b82818337600083830152505050565b6000611208611203846111b5565b61119a565b90508281526020810184848401111561122457611223611135565b5b61122f8482856111e6565b509392505050565b600082601f83011261124c5761124b611130565b5b813561125c8482602086016111f5565b91505092915050565b6000806040838503121561127c5761127b610ea0565b5b600083013567ffffffffffffffff81111561129a57611299610ea5565b5b6112a685828601611237565b92505060206112b785828601610ecb565b9150509250929050565b60006020820190506112d660008301846110b9565b92915050565b7f43616c6c6572206973206e6f7420746865207472757374656500000000000000600082015250565b6000611312601983610f82565b915061131d826112dc565b602082019050919050565b6000602082019050818103600083015261134181611305565b9050919050565b600060408201905061135d6000830185610f4d565b61136a6020830184610f4d565b9392505050565b7f43617365206973206e6f7420696e2050726f63657373696e6720737461747573600082015250565b60006113a7602083610f82565b91506113b282611371565b602082019050919050565b600060208201905081810360008301526113d68161139a565b9050919050565b60006040820190506113f26000830185610f4d565b6113ff6020830184611078565b9392505050565b600060408201905061141b6000830185610f4d565b61142860208301846110b9565b9392505050565b7f4e487b7100000000000000000000000000000000000000000000000000000000600052602260045260246000fd5b6000600282049050600182168061147657607f821691505b6020821081036114895761148861142f565b5b50919050565b7f43617365206d75737420626520696e204576616c756174656420737461747573600082015250565b60006114c5602083610f82565b91506114d08261148f565b602082019050919050565b600060208201905081810360008301526114f4816114b8565b9050919050565b7f446f6e6174696f6e206d7573742062652067726561746572207468616e203000600082015250565b6000611531601f83610f82565b915061153c826114fb565b602082019050919050565b6000602082019050818103600083015261156081611524565b9050919050565b7f43617365206d757374206e6f7420626520696e20436f6d706c6574656420737460008201527f6174757300000000000000000000000000000000000000000000000000000000602082015250565b60006115c3602483610f82565b91506115ce82611567565b604082019050919050565b600060208201905081810360008301526115f2816115b6565b9050919050565b7f43617365206d757374206e6f742062652052656a656374656400000000000000600082015250565b600061162f601983610f82565b915061163a826115f9565b602082019050919050565b6000602082019050818103600083015261165e81611622565b9050919050565b7f4e487b7100000000000000000000000000000000000000000000000000000000600052601160045260246000fd5b600061169f82610eaa565b91506116aa83610eaa565b9250827fffffffffffffffffffffffffffffffffffffffffffffffffffffffffffffffff038211156116df576116de611665565b5b828201905092915050565b60006116f582610eaa565b915061170083610eaa565b92508282101561171357611712611665565b5b828203905092915050565b600060408201905061173360008301856110b9565b6117406020830184610f4d565b9392505050565b600060808201905061175c6000830187610f4d565b61176960208301866110b9565b6117766040830185610f4d565b6117836060830184610f4d565b95945050505050565b60006060820190506117a16000830186610f4d565b6117ae60208301856110b9565b6117bb6040830184610f4d565b949350505050565b60006117ce82610eaa565b91507fffffffffffffffffffffffffffffffffffffffffffffffffffffffffffffffff8203611800576117ff611665565b5b60018201905091905056fea2646970667358221220a687ae21e38064c6385905a42efc588a3927f574d25b90938b9f9375baeec81e64736f6c634300080d0033",
  "immutableReferences": {},
  "source": "// SPDX-License-Identifier: MIT\r\npragma solidity >=0.8.0 <0.9.0;\r\n\r\ncontract CharityDonation {\r\n    enum CaseStatus { Pending, Processing, Evaluated, Completed, Approved, Rejected }\r\n\r\n    struct DonationCase {\r\n        uint id;\r\n        string description;\r\n        uint targetAmount;\r\n        CaseStatus status;\r\n        uint evaluation;\r\n        address beneficiary;\r\n    }\r\n\r\n    address public trustee;\r\n    uint private nextCaseId;\r\n    mapping(uint => DonationCase) public cases;\r\n    mapping(uint => uint) public currentAmount; // Tracks the amount collected for each case\r\n\r\n    // Assuming calcPercentages is a function that calculates administrative fees\r\n    // and the amount to be sent to the needy. You would need to define this based on your needs.\r\n    // For simplicity, this example will just send a fixed percentage to the trustee as fees.\r\n    uint public adminFeePercentage = 5; // 5% administrative fee\r\n\r\n    event CaseCreated(uint caseId, address createdBy, uint timestamp);\r\n    event CaseStatusChanged(uint caseId, CaseStatus status);\r\n    event CaseEvaluated(uint caseId, uint evaluation);\r\n    event CaseApproved(uint caseId, address needy);\r\n    event CaseRejected(uint caseId, address needy);\r\n    event Donate(uint caseId, address donor, uint amount, uint timestamp);\r\n    event CaseCompleted(uint caseId);\r\n    event RefundIssued(address donor, uint amount);\r\n\r\n    modifier onlyTrustee() {\r\n        require(msg.sender == trustee, \"Caller is not the trustee\");\r\n        _;\r\n    }\r\n\r\n    constructor() {\r\n        trustee = msg.sender; // The creator of the contract is the trustee\r\n    }\r\n\r\n    function createCaseByBeneficiary(string memory _description, uint _targetAmount) public {\r\n        DonationCase memory newCase = DonationCase({\r\n            id: nextCaseId,\r\n            description: _description,\r\n            targetAmount: _targetAmount,\r\n            status: CaseStatus.Processing,\r\n            evaluation: 0,\r\n            beneficiary: msg.sender\r\n        });\r\n\r\n        cases[nextCaseId] = newCase;\r\n        emit CaseCreated(nextCaseId, msg.sender, block.timestamp);\r\n        nextCaseId++;\r\n    }\r\n\r\n    function createCaseByTrustee(uint _caseId, uint _evaluation) public onlyTrustee {\r\n        cases[_caseId].evaluation = _evaluation;\r\n        cases[_caseId].status = CaseStatus.Evaluated;\r\n        emit CaseEvaluated(nextCaseId, _evaluation);\r\n    }\r\n\r\n    function approveCase(uint _caseId) public onlyTrustee {\r\n        require(cases[_caseId].status == CaseStatus.Processing, \"Case is not in Processing status\");\r\n        \r\n        cases[_caseId].status = CaseStatus.Approved;\r\n        emit CaseStatusChanged(_caseId, CaseStatus.Approved);\r\n        emit CaseApproved(_caseId, msg.sender);\r\n    }\r\n\r\n    function rejectCase(uint _caseId) public onlyTrustee {\r\n        require(cases[_caseId].status == CaseStatus.Processing, \"Case is not in Processing status\");\r\n        \r\n        cases[_caseId].status = CaseStatus.Rejected;\r\n        emit CaseStatusChanged(_caseId, CaseStatus.Rejected);\r\n        emit CaseRejected(_caseId, msg.sender);\r\n    }\r\n\r\n    // The donate function allows a donor to donate to a specific case by its ID.\r\n    function donate(uint _caseId) public payable {\r\n        require(cases[_caseId].status == CaseStatus.Evaluated, \"Case must be in Evaluated status\");\r\n        require(msg.value > 0, \"Donation must be greater than 0\");\r\n        require(cases[_caseId].status != CaseStatus.Completed, \"Case must not be in Completed status\");\r\n        require(cases[_caseId].status != CaseStatus.Rejected, \"Case must not be Rejected\");\r\n\r\n        uint refundAmount = 0;\r\n        uint donationAmount = msg.value;\r\n        uint newAmount = currentAmount[_caseId] + donationAmount;\r\n\r\n        if (newAmount > cases[_caseId].targetAmount) {\r\n            refundAmount = newAmount - cases[_caseId].targetAmount;\r\n            donationAmount -= refundAmount;\r\n            payable(msg.sender).transfer(refundAmount); // Refund the excess to the donor\r\n            emit RefundIssued(msg.sender, refundAmount);\r\n        }\r\n\r\n        currentAmount[_caseId] += donationAmount;\r\n        //uint adminFee = (donationAmount * adminFeePercentage) / 100;\r\n        uint needyAmount = donationAmount;\r\n\r\n        //payable(trustee).transfer(adminFee); // Transfer the admin fee to the trustee\r\n        payable(cases[_caseId].beneficiary).transfer(needyAmount); // Transfer the remaining amount to the needy\r\n\r\n        if (newAmount >= cases[_caseId].targetAmount) {\r\n            cases[_caseId].status = CaseStatus.Completed;\r\n            emit CaseCompleted(_caseId);\r\n        }\r\n\r\n        emit Donate(_caseId, msg.sender, donationAmount, block.timestamp);\r\n    }\r\n}",
  "sourcePath": "D:\\Security Course\\Project\\Decentralized_Charity_Organization\\crypto-donation-system\\contracts\\CharityDonation.sol",
  "compiler": {
    "name": "solc",
    "version": "0.8.13+commit.abaa5c0e.Emscripten.clang"
  },
  "schemaVersion": "3.4.16",
  "updatedAt": "2023-12-04T02:16:43.438Z",
  "devdoc": {
    "kind": "dev",
    "methods": {},
    "version": 1
  },
  "userdoc": {
    "kind": "user",
    "methods": {},
    "version": 1
  }
}