{
  "contractName": "Charity",
  "abi": [
    {
      "inputs": [],
      "stateMutability": "nonpayable",
      "type": "constructor"
    },
    {
      "anonymous": false,
      "inputs": [
        {
          "indexed": false,
          "internalType": "uint256",
          "name": "caseId",
          "type": "uint256"
        }
      ],
      "name": "CaseCompleted",
      "type": "event"
    },
    {
      "anonymous": false,
      "inputs": [
        {
          "indexed": false,
          "internalType": "uint256",
          "name": "caseId",
          "type": "uint256"
        },
        {
          "indexed": false,
          "internalType": "address",
          "name": "createdBy",
          "type": "address"
        },
        {
          "indexed": false,
          "internalType": "uint256",
          "name": "timestamp",
          "type": "uint256"
        }
      ],
      "name": "CaseCreated",
      "type": "event"
    },
    {
      "anonymous": false,
      "inputs": [
        {
          "indexed": false,
          "internalType": "uint256",
          "name": "caseId",
          "type": "uint256"
        },
        {
          "indexed": false,
          "internalType": "address",
          "name": "donor",
          "type": "address"
        },
        {
          "indexed": false,
          "internalType": "uint256",
          "name": "amount",
          "type": "uint256"
        },
        {
          "indexed": false,
          "internalType": "uint256",
          "name": "timestamp",
          "type": "uint256"
        }
      ],
      "name": "Donate",
      "type": "event"
    },
    {
      "inputs": [
        {
          "internalType": "uint256",
          "name": "",
          "type": "uint256"
        }
      ],
      "name": "cases",
      "outputs": [
        {
          "internalType": "uint256",
          "name": "id",
          "type": "uint256"
        },
        {
          "internalType": "uint256",
          "name": "targetAmount",
          "type": "uint256"
        },
        {
          "internalType": "uint256",
          "name": "currentAmount",
          "type": "uint256"
        },
        {
          "internalType": "enum Charity.CaseStatus",
          "name": "status",
          "type": "uint8"
        },
        {
          "internalType": "address",
          "name": "beneficiary",
          "type": "address"
        },
        {
          "internalType": "string",
          "name": "detailsHash",
          "type": "string"
        },
        {
          "internalType": "string",
          "name": "imageHash",
          "type": "string"
        }
      ],
      "stateMutability": "view",
      "type": "function",
      "constant": true
    },
    {
      "inputs": [],
      "name": "trustee",
      "outputs": [
        {
          "internalType": "address",
          "name": "",
          "type": "address"
        }
      ],
      "stateMutability": "view",
      "type": "function",
      "constant": true
    },
    {
      "inputs": [
        {
          "internalType": "uint256",
          "name": "_targetAmount",
          "type": "uint256"
        },
        {
          "internalType": "string",
          "name": "_detailsHash",
          "type": "string"
        },
        {
          "internalType": "string",
          "name": "_imageHash",
          "type": "string"
        }
      ],
      "name": "createCaseByBeneficiary",
      "outputs": [],
      "stateMutability": "nonpayable",
      "type": "function"
    },
    {
      "inputs": [
        {
          "internalType": "uint256",
          "name": "_caseId",
          "type": "uint256"
        }
      ],
      "name": "donate",
      "outputs": [],
      "stateMutability": "payable",
      "type": "function",
      "payable": true
    },
    {
      "inputs": [],
      "name": "listActiveCases",
      "outputs": [
        {
          "components": [
            {
              "internalType": "uint256",
              "name": "id",
              "type": "uint256"
            },
            {
              "internalType": "uint256",
              "name": "targetAmount",
              "type": "uint256"
            },
            {
              "internalType": "uint256",
              "name": "currentAmount",
              "type": "uint256"
            },
            {
              "internalType": "enum Charity.CaseStatus",
              "name": "status",
              "type": "uint8"
            },
            {
              "internalType": "address",
              "name": "beneficiary",
              "type": "address"
            },
            {
              "internalType": "string",
              "name": "detailsHash",
              "type": "string"
            },
            {
              "internalType": "string",
              "name": "imageHash",
              "type": "string"
            }
          ],
          "internalType": "struct Charity.DonationCase[]",
          "name": "",
          "type": "tuple[]"
        }
      ],
      "stateMutability": "view",
      "type": "function",
      "constant": true
    }
  ],
  "bytecode": "0x608060405234801561001057600080fd5b50336000806101000a81548173ffffffffffffffffffffffffffffffffffffffff021916908373ffffffffffffffffffffffffffffffffffffffff1602179055506117b9806100606000396000f3fe60806040526004361061004a5760003560e01c8063931a4b8d1461004f578063b13c70fc14610078578063f09790dd146100a3578063f14faf6f146100e6578063fdf97cb214610102575b600080fd5b34801561005b57600080fd5b5061007660048036038101906100719190610e4e565b61012d565b005b34801561008457600080fd5b5061008d610341565b60405161009a919061118d565b60405180910390f35b3480156100af57600080fd5b506100ca60048036038101906100c591906111af565b6105f8565b6040516100dd9796959493929190611253565b60405180910390f35b61010060048036038101906100fb91906111af565b610777565b005b34801561010e57600080fd5b50610117610ac7565b60405161012491906112d0565b60405180910390f35b60008311610170576040517f08c379a00000000000000000000000000000000000000000000000000000000081526004016101679061135d565b60405180910390fd5b60006040518060e00160405280600154815260200185815260200160008152602001600060018111156101a6576101a5610f14565b5b81526020013373ffffffffffffffffffffffffffffffffffffffff1681526020018481526020018381525090508060026000600154815260200190815260200160002060008201518160000155602082015181600101556040820151816002015560608201518160030160006101000a81548160ff0219169083600181111561023257610231610f14565b5b021790555060808201518160030160016101000a81548173ffffffffffffffffffffffffffffffffffffffff021916908373ffffffffffffffffffffffffffffffffffffffff16021790555060a082015181600401908051906020019061029a929190610bb6565b5060c08201518160050190805190602001906102b7929190610bb6565b50905050600360015490806001815401808255809150506001900390600052602060002001600090919091909150557fd104dde728c24c98387d74ddef6bdc5eea0e094fc17fdfa4a76da8e49323711c600154334260405161031b9392919061137d565b60405180910390a160016000815480929190610336906113e3565b919050555050505050565b6060600060038054905067ffffffffffffffff81111561036457610363610d23565b5b60405190808252806020026020018201604052801561039d57816020015b61038a610c3c565b8152602001906001900390816103825790505b50905060005b6003805490508110156105f05760026000600383815481106103c8576103c761142b565b5b906000526020600020015481526020019081526020016000206040518060e00160405290816000820154815260200160018201548152602001600282015481526020016003820160009054906101000a900460ff16600181111561042f5761042e610f14565b5b600181111561044157610440610f14565b5b81526020016003820160019054906101000a900473ffffffffffffffffffffffffffffffffffffffff1673ffffffffffffffffffffffffffffffffffffffff1673ffffffffffffffffffffffffffffffffffffffff1681526020016004820180546104ab90611489565b80601f01602080910402602001604051908101604052809291908181526020018280546104d790611489565b80156105245780601f106104f957610100808354040283529160200191610524565b820191906000526020600020905b81548152906001019060200180831161050757829003601f168201915b5050505050815260200160058201805461053d90611489565b80601f016020809104026020016040519081016040528092919081815260200182805461056990611489565b80156105b65780601f1061058b576101008083540402835291602001916105b6565b820191906000526020600020905b81548152906001019060200180831161059957829003601f168201915b5050505050815250508282815181106105d2576105d161142b565b5b602002602001018190525080806105e8906113e3565b9150506103a3565b508091505090565b60026020528060005260406000206000915090508060000154908060010154908060020154908060030160009054906101000a900460ff16908060030160019054906101000a900473ffffffffffffffffffffffffffffffffffffffff169080600401805461066690611489565b80601f016020809104026020016040519081016040528092919081815260200182805461069290611489565b80156106df5780601f106106b4576101008083540402835291602001916106df565b820191906000526020600020905b8154815290600101906020018083116106c257829003601f168201915b5050505050908060050180546106f490611489565b80601f016020809104026020016040519081016040528092919081815260200182805461072090611489565b801561076d5780601f106107425761010080835404028352916020019161076d565b820191906000526020600020905b81548152906001019060200180831161075057829003601f168201915b5050505050905087565b806002600083815260200190815260200160002060000154146107cf576040517f08c379a00000000000000000000000000000000000000000000000000000000081526004016107c690611506565b60405180910390fd5b600060018111156107e3576107e2610f14565b5b6002600083815260200190815260200160002060030160009054906101000a900460ff16600181111561081957610818610f14565b5b14610859576040517f08c379a000000000000000000000000000000000000000000000000000000000815260040161085090611572565b60405180910390fd5b60008054906101000a900473ffffffffffffffffffffffffffffffffffffffff1673ffffffffffffffffffffffffffffffffffffffff163373ffffffffffffffffffffffffffffffffffffffff16036108e7576040517f08c379a00000000000000000000000000000000000000000000000000000000081526004016108de906115de565b60405180910390fd5b6000341161092a576040517f08c379a00000000000000000000000000000000000000000000000000000000081526004016109219061164a565b60405180910390fd5b34600260008381526020019081526020016000206002016000828254610950919061166a565b925050819055506002600082815260200190815260200160002060030160019054906101000a900473ffffffffffffffffffffffffffffffffffffffff1673ffffffffffffffffffffffffffffffffffffffff166108fc349081150290604051600060405180830381858888f193505050501580156109d3573d6000803e3d6000fd5b506002600082815260200190815260200160002060010154600260008381526020019081526020016000206002015410610a875760016002600083815260200190815260200160002060030160006101000a81548160ff02191690836001811115610a4157610a40610f14565b5b0217905550610a4f81610aeb565b7fc4942a26c7fc82969759ab441f3d3795870e601d88515c476c5ba2648715b81081604051610a7e91906116c0565b60405180910390a15b7f5b578d01c6d050393499c6be922240a8c6b29718e1312285d344f23a5b1ceba381333442604051610abc94939291906116db565b60405180910390a150565b60008054906101000a900473ffffffffffffffffffffffffffffffffffffffff1681565b60005b600380549050811015610bb2578160038281548110610b1057610b0f61142b565b5b906000526020600020015403610b9f5760036001600380549050610b349190611720565b81548110610b4557610b4461142b565b5b906000526020600020015460038281548110610b6457610b6361142b565b5b90600052602060002001819055506003805480610b8457610b83611754565b5b60019003818190600052602060002001600090559055610bb2565b8080610baa906113e3565b915050610aee565b5050565b828054610bc290611489565b90600052602060002090601f016020900481019282610be45760008555610c2b565b82601f10610bfd57805160ff1916838001178555610c2b565b82800160010185558215610c2b579182015b82811115610c2a578251825591602001919060010190610c0f565b5b509050610c389190610ca1565b5090565b6040518060e0016040528060008152602001600081526020016000815260200160006001811115610c7057610c6f610f14565b5b8152602001600073ffffffffffffffffffffffffffffffffffffffff16815260200160608152602001606081525090565b5b80821115610cba576000816000905550600101610ca2565b5090565b6000604051905090565b600080fd5b600080fd5b6000819050919050565b610ce581610cd2565b8114610cf057600080fd5b50565b600081359050610d0281610cdc565b92915050565b600080fd5b600080fd5b6000601f19601f8301169050919050565b7f4e487b7100000000000000000000000000000000000000000000000000000000600052604160045260246000fd5b610d5b82610d12565b810181811067ffffffffffffffff82111715610d7a57610d79610d23565b5b80604052505050565b6000610d8d610cbe565b9050610d998282610d52565b919050565b600067ffffffffffffffff821115610db957610db8610d23565b5b610dc282610d12565b9050602081019050919050565b82818337600083830152505050565b6000610df1610dec84610d9e565b610d83565b905082815260208101848484011115610e0d57610e0c610d0d565b5b610e18848285610dcf565b509392505050565b600082601f830112610e3557610e34610d08565b5b8135610e45848260208601610dde565b91505092915050565b600080600060608486031215610e6757610e66610cc8565b5b6000610e7586828701610cf3565b935050602084013567ffffffffffffffff811115610e9657610e95610ccd565b5b610ea286828701610e20565b925050604084013567ffffffffffffffff811115610ec357610ec2610ccd565b5b610ecf86828701610e20565b9150509250925092565b600081519050919050565b600082825260208201905092915050565b6000819050602082019050919050565b610f0e81610cd2565b82525050565b7f4e487b7100000000000000000000000000000000000000000000000000000000600052602160045260246000fd5b60028110610f5457610f53610f14565b5b50565b6000819050610f6582610f43565b919050565b6000610f7582610f57565b9050919050565b610f8581610f6a565b82525050565b600073ffffffffffffffffffffffffffffffffffffffff82169050919050565b6000610fb682610f8b565b9050919050565b610fc681610fab565b82525050565b600081519050919050565b600082825260208201905092915050565b60005b83811015611006578082015181840152602081019050610feb565b83811115611015576000848401525b50505050565b600061102682610fcc565b6110308185610fd7565b9350611040818560208601610fe8565b61104981610d12565b840191505092915050565b600060e08301600083015161106c6000860182610f05565b50602083015161107f6020860182610f05565b5060408301516110926040860182610f05565b5060608301516110a56060860182610f7c565b5060808301516110b86080860182610fbd565b5060a083015184820360a08601526110d0828261101b565b91505060c083015184820360c08601526110ea828261101b565b9150508091505092915050565b60006111038383611054565b905092915050565b6000602082019050919050565b600061112382610ed9565b61112d8185610ee4565b93508360208202850161113f85610ef5565b8060005b8581101561117b578484038952815161115c85826110f7565b94506111678361110b565b925060208a01995050600181019050611143565b50829750879550505050505092915050565b600060208201905081810360008301526111a78184611118565b905092915050565b6000602082840312156111c5576111c4610cc8565b5b60006111d384828501610cf3565b91505092915050565b6111e581610cd2565b82525050565b6111f481610f6a565b82525050565b61120381610fab565b82525050565b600082825260208201905092915050565b600061122582610fcc565b61122f8185611209565b935061123f818560208601610fe8565b61124881610d12565b840191505092915050565b600060e082019050611268600083018a6111dc565b61127560208301896111dc565b61128260408301886111dc565b61128f60608301876111eb565b61129c60808301866111fa565b81810360a08301526112ae818561121a565b905081810360c08301526112c2818461121a565b905098975050505050505050565b60006020820190506112e560008301846111fa565b92915050565b7f54617267657420616d6f756e74206d757374206265206772656174657220746860008201527f616e207a65726f00000000000000000000000000000000000000000000000000602082015250565b6000611347602783611209565b9150611352826112eb565b604082019050919050565b600060208201905081810360008301526113768161133a565b9050919050565b600060608201905061139260008301866111dc565b61139f60208301856111fa565b6113ac60408301846111dc565b949350505050565b7f4e487b7100000000000000000000000000000000000000000000000000000000600052601160045260246000fd5b60006113ee82610cd2565b91507fffffffffffffffffffffffffffffffffffffffffffffffffffffffffffffffff82036114205761141f6113b4565b5b600182019050919050565b7f4e487b7100000000000000000000000000000000000000000000000000000000600052603260045260246000fd5b7f4e487b7100000000000000000000000000000000000000000000000000000000600052602260045260246000fd5b600060028204905060018216806114a157607f821691505b6020821081036114b4576114b361145a565b5b50919050565b7f4361736520646f6573206e6f7420657869737400000000000000000000000000600082015250565b60006114f0601383611209565b91506114fb826114ba565b602082019050919050565b6000602082019050818103600083015261151f816114e3565b9050919050565b7f43617365206973206e6f7420696e2070726f6772657373000000000000000000600082015250565b600061155c601783611209565b915061156782611526565b602082019050919050565b6000602082019050818103600083015261158b8161154f565b9050919050565b7f436861726974792063616e6e6f74206265206120646f6e6f7200000000000000600082015250565b60006115c8601983611209565b91506115d382611592565b602082019050919050565b600060208201905081810360008301526115f7816115bb565b9050919050565b7f446f6e6174696f6e206d7573742062652067726561746572207468616e203000600082015250565b6000611634601f83611209565b915061163f826115fe565b602082019050919050565b6000602082019050818103600083015261166381611627565b9050919050565b600061167582610cd2565b915061168083610cd2565b9250827fffffffffffffffffffffffffffffffffffffffffffffffffffffffffffffffff038211156116b5576116b46113b4565b5b828201905092915050565b60006020820190506116d560008301846111dc565b92915050565b60006080820190506116f060008301876111dc565b6116fd60208301866111fa565b61170a60408301856111dc565b61171760608301846111dc565b95945050505050565b600061172b82610cd2565b915061173683610cd2565b925082821015611749576117486113b4565b5b828203905092915050565b7f4e487b7100000000000000000000000000000000000000000000000000000000600052603160045260246000fdfea26469706673582212206610a8b1fa5623a25397e7a96cd49bd8821c770196992d623375bde82730b86664736f6c634300080d0033",
  "immutableReferences": {},
  "source": "// SPDX-License-Identifier: MIT\r\npragma solidity >=0.8.0 <0.9.0;\r\n\r\ncontract Charity {\r\n    enum CaseStatus {\r\n        InProgress,\r\n        Completed\r\n    }\r\n\r\n    struct DonationCase {\r\n        uint256 id;\r\n        uint256 targetAmount;\r\n        uint256 currentAmount;\r\n        CaseStatus status;\r\n        address beneficiary;\r\n        string detailsHash;\r\n        string imageHash;\r\n    }\r\n\r\n    address public trustee;\r\n    uint256 private nextCaseId;\r\n    mapping(uint256 => DonationCase) public cases;\r\n    uint256[] private activeCaseIds;\r\n\r\n    event CaseCreated(uint256 caseId, address createdBy, uint256 timestamp);\r\n    event CaseCompleted(uint256 caseId);\r\n    event Donate(\r\n        uint256 caseId,\r\n        address donor,\r\n        uint256 amount,\r\n        uint256 timestamp\r\n    );\r\n\r\n    constructor() {\r\n        trustee = msg.sender;\r\n    }\r\n\r\n    function createCaseByBeneficiary(\r\n        uint256 _targetAmount,\r\n        string memory _detailsHash,\r\n        string memory _imageHash\r\n    ) public {\r\n        require(_targetAmount > 0, \"Target amount must be greater than zero\");\r\n\r\n        DonationCase memory newCase = DonationCase({\r\n            id: nextCaseId,\r\n            targetAmount: _targetAmount,\r\n            status: CaseStatus.InProgress,\r\n            beneficiary: msg.sender,\r\n            detailsHash: _detailsHash,\r\n            imageHash: _imageHash,\r\n            currentAmount: 0\r\n        });\r\n\r\n        cases[nextCaseId] = newCase;\r\n        activeCaseIds.push(nextCaseId);\r\n        emit CaseCreated(nextCaseId, msg.sender, block.timestamp);\r\n        nextCaseId++;\r\n    }\r\n\r\n    function donate(uint256 _caseId) public payable {\r\n        require(cases[_caseId].id == _caseId, \"Case does not exist\");\r\n        require(\r\n            cases[_caseId].status == CaseStatus.InProgress,\r\n            \"Case is not in progress\"\r\n        );\r\n        require(msg.sender != trustee, \"Charity cannot be a donor\");\r\n        require(msg.value > 0, \"Donation must be greater than 0\");\r\n\r\n        cases[_caseId].currentAmount += msg.value;\r\n        payable(cases[_caseId].beneficiary).transfer(msg.value);\r\n\r\n        if (cases[_caseId].currentAmount >= cases[_caseId].targetAmount) {\r\n            cases[_caseId].status = CaseStatus.Completed;\r\n            removeActiveCase(_caseId);\r\n            emit CaseCompleted(_caseId);\r\n        }\r\n\r\n        emit Donate(_caseId, msg.sender, msg.value, block.timestamp);\r\n    }\r\n\r\n\r\n    function listActiveCases() public view returns (DonationCase[] memory) {\r\n        DonationCase[] memory activeCases = new DonationCase[](activeCaseIds.length);\r\n        for (uint256 i = 0; i < activeCaseIds.length; i++) {\r\n            activeCases[i] = cases[activeCaseIds[i]];\r\n        }\r\n        return activeCases;\r\n    }\r\n\r\n    function removeActiveCase(uint256 _caseId) private {\r\n        for (uint256 i = 0; i < activeCaseIds.length; i++) {\r\n            if (activeCaseIds[i] == _caseId) {\r\n                activeCaseIds[i] = activeCaseIds[activeCaseIds.length - 1];\r\n                activeCaseIds.pop();\r\n                break;\r\n            }\r\n        }\r\n    }\r\n}",
  "sourcePath": "D:\\Security Course\\Project\\Decentralized_Charity_Organization\\crypto-donation-system\\contracts\\Charity.sol",
  "compiler": {
    "name": "solc",
    "version": "0.8.13+commit.abaa5c0e.Emscripten.clang"
  },
  "schemaVersion": "3.4.16",
  "updatedAt": "2023-12-04T23:06:00.233Z",
  "networkType": "ethereum",
  "devdoc": {
    "kind": "dev",
    "methods": {},
    "version": 1
  },
  "userdoc": {
    "kind": "user",
    "methods": {},
    "version": 1
  }
}